:020000040800F2
:100000002871022401001008BD6A0008155C000870
:10001000096100081D220008D985000800000000C1
:10002000000000000000000000000000AD02000819
:100030001D2D000800000000090300085D7C000879
:100040001B0010081B0010081B0010081B001008E4
:100050001B0010081B0010081B0010081B001008D4
:100060001B0010081B0010081B0010081B001008C4
:10007000892A00081B001008992A00081B00100894
:100080001B0010081B0010081B0010081B001008A4
:100090001B0010081B0010081B0010081B00100894
:1000A0001B001008917C00081B0010081B001008A2
:1000B0001B0010081B0010081B0010081B00100874
:1000C0001B0010081B0010081B0010081B00100864
:1000D0001B001008F99310081B001008C9850008C0
:1000E0001B0010081B001008000000001B00100877
:1000F0001B0010081B0010081B0010081B00100834
:100100001B0010081B0010081B0010081B00100823
:100110001B0010081B0010081B001008A17C000821
:100120001B0010081B0010081B0010081B00100803
:100130001B0010081B0010081B0010081B001008F3
:1001400000000000000000000000000000000000AF
:100150001B0010081B0010081B0010081B001008D3
:100160001B0010081B0010081B0010081B001008C3
:100170001B0010081B0010081B00100800000000E6
:100180001B0010081B0010081B0010081B001008A3
:100190001B0010081B0010081B0010081B00100893
:1001A0001B0010081B0010081B0010081B00100883
:1001B0001B0010081B0010081B0010081B00100873
:1001C0001B0010081B0010081B0010081B00100863
:1001D0001B0010081B0010081B0010081B00100853
:1001E0001B0010081B0010081B0010081B00100843
:1001F0001B0010081B0010081B0010081B00100833
:100200001B0010081B0010081B0010081B00100822
:100210001B0010081B0010081B0010081B00100812
:100220001B0010081B0010081B0010080000000035
:100230001B0010081B001008000000001B00100825
:100240001B0010081B0010081B0010081B001008E2
:100250001B0010081B0010081B0010081B001008D2
:100260001B0010081B0010081B0010081B001008C2
:100270001B0010081B0010081B00100800000000E5
:100280001B0010081B0010081B00100800000000D5
:10029000000000001B001008DFF80CD000F0E6F9A9
:1002A0000048004731B40008287102242C4B19681B
:1002B0000868B0E8F04F80F30988BFF36F8F4FF004
:1002C000000080F3118870470000000008480068B3
:1002D000006880F308884FF0000080F3148862B64D
:1002E00061B6BFF34F8FBFF36F8F00DF00BF00BF5A
:1002F00008ED00E0DFF80C00016841F470010160D6
:10030000704700BF88ED00E0EFF30980BFF36F8F07
:10031000134B1A681EF0100F08BF20ED108A20E959
:10032000F04F106009B44FF0500080F31188BFF314
:100330004F8FBFF36F8F0FF179F94FF0000080F30B
:10034000118809BC19680868B0E8F04F1EF0100F5A
:1003500008BFB0EC108A80F30988BFF36F8F704735
:1003600090010024EFF3058070472DE9F04100244F
:10037000061B254671F1000605DA01240027D0EBA3
:10038000070067EB0101161E73F1000605DA00276E
:10039000D2EB0702012567EB0303FFF043FE86461D
:1003A0000E4617469C46AC4204D00025D0EB050E05
:1003B00065EB010624B10020D2EB000760EB030CD3
:1003C000704631463A466346BDE8F081D2B201E05C
:1003D00000F8012B491EFBD270470022F6E710B54A
:1003E00013460A4604461946FFF7F0FF204610BDA3
:1003F00010B5044604E00B7800F8013B03B1491C3A
:10040000521EF8D2204610BDCAB2401E10F8011F7D
:100410008A4202D00029F9D100207047421C10F80E
:10042000011B0029FBD1801A70473EB5CA17CB0FBC
:10043000002450405140C0186141DA0740F2334374
:100440000094CDE901232246234600F036F803B09C
:1004500030BD30B50B46014600202022012409E0C2
:1004600021FA02F59D4205D303FA02F5491B04FA6D
:1004700002F52844151EA2F10102F1DC30BD202A4C
:1004800004DB203A00FA02F1002070479140C2F1EB
:10049000200320FA03F319439040704710B5141E4F
:1004A00073F1000408DA401C41F1000192185B412D
:1004B0001A4301D120F0010010BD2DE9F04D924604
:1004C0009B4611B1B1FA81F202E0B0FA80F220321B
:1004D0009046FFF7D4FF04460F4640EA0A0041EA7F
:1004E0000B0153465A46084313D0114653EA010004
:1004F00019D0C8F140025046FFF0E0FD05460E4617
:10050000504659464246FFF7BAFF084305D001203E
:1005100004E020463946BDE8F08D0020054346EA58
:10052000E0762C4337430A986305E40AA0EB080001
:100530000022FD0A44EA47540A3002D50020014651
:10054000E9E7010510196941DDE90845001969412C
:10055000BDE8F04DA2E72DE9FE4F81EA030404F067
:10056000004421F0004100944FF0000B23F00043C1
:1005700050EA01045ED052EA03045BD0C3F30A548C
:10058000C1F30A552C44A4F2F3340194A0FB0254A5
:10059000C1F3130141F48011C3F3130343F4801337
:1005A00001FB024400FB034E840A970A44EA81548B
:1005B00047EA8357A4FB076802958D0A05FB078568
:1005C0004FEA932C04FB0C542705029D4FEA065872
:1005D00047EA1637B5EB08056EEB070C870E920E4F
:1005E00047EA811742EA8312A7FB0201B6EB0B012F
:1005F00064EB00042B0D43EA0C335E1844EB1C50F3
:10060000DA465146E7FB0201C5F313044FEA0B3308
:1006100043EA14534FEA0432019C43EA0603A4F16F
:100620000C040294009CCDE900B4FFF746FF03B030
:10063000BDE8F08F00200146F9E7000030B5041E48
:1006400071F1000404DB4FF00044404264EB01010F
:10065000141E73F1000405DB1C464FF000435242A8
:1006600063EB0403994208BF904230BD064C074D2E
:1006700006E0E06840F0010394E807009847103472
:10068000AC42F6D3FFF70CFE0CFB00082CFB000875
:10069000202A06DBCB17203A41FA02F043EAE07346
:1006A00006E041FA02F3D040C2F120029140084333
:1006B0001946704770B58C1810F8015B15F00703E8
:1006C00001D110F8013B2A1106D110F8012B03E0EB
:1006D00010F8016B01F8016B5B1EF9D12B0705D4F3
:1006E0000023521E0DD401F8013BFAE710F8013B3C
:1006F000CB1A921C03E013F8015B01F8015B521E58
:10070000F9D5A142D8D3002070BD00001048007870
:1007100000B9704700200E4908700E4890F8270075
:10072000042806D100200B4981F82700886181F850
:100730008C00084890F8F300042807D100210548F0
:1007400080F8F310C0F8E41080F8581100BFE0E71B
:10075000002B00245C0800242DE9FF4704460F46C7
:10076000002C03DB57480078844201DBBDE8FF879B
:100770002046FFF0C9FE032C40D104EB041000EB2F
:100780004000514901EB8000D0F8BC50002D03DC43
:10079000204601F19DFE054697FBF5F005FB10781C
:1007A000B8F1000F00DAA84404EB041000EB40009D
:1007B000454901EB8000406990FBF5F105FB11090B
:1007C000B9F1000F00DAA944A8EB0906284605EBA9
:1007D000D0714FEA610A564501DD761B04E0CAF18B
:1007E0000000864200DA2E4404EB041000EB4000C7
:1007F000354901EB80004069871900BF022004EBF6
:10080000041101EB4101304A02EB810181F827001C
:1008100004EB041000EB4000114601EB800007617F
:100820002A480168204601F083FA012004EB0411F4
:1008300001EB4101244A02EB810181F88C0004EBB9
:10084000041000EB4000114601EB8000C569012156
:1008500001EB041188B206F08BFA064602AB03AA3C
:100860003146284606F0B2FC032C01D103980290D1
:10087000DDE9021004EB041202EB4202124B03EB1F
:100880008202CDE90001516904EB041202EB42023D
:1008900003EB820202F134002B463A4606F0D4FC08
:1008A000032C01D10AA000E00CA000900D4850F8E4
:1008B000241006483A4603680BA007F08FFE00BFDD
:1008C00054E70000160000245C080024B400002453
:1008D00054726170657A6F6964000000532D43752E
:1008E000727665009400002425733A20474F544FD8
:1008F00020706F733D2564202825642052504D29B7
:100900002025730D0A0000002DE9FE4F04460D4618
:100910009046002C03DBA8480078844201DBBDE848
:10092000FE8F2046FFF0F0FDEDBB002004EB04112C
:1009300001EB4101A14A02EB8101C1F8B80004EBCF
:10094000041000EB4000114601EB800090F85500C8
:1009500008281CD004EB041000EB400001EB8000E1
:1009600090F95500401C90B104EB041000EB4000DE
:1009700001EB8000C06C002809DD04EB041101EBE1
:10098000410102EB810101F1340007F00BF8022074
:1009900004EB041101EB4101884A02EB810181F86B
:1009A0002700012000E011E004EB041101EB4101FC
:1009B00002EB810181F88C00002004EB041101EBB3
:1009C000410102EB810181F82600A8E740F6B8302A
:1009D000854200DD0546B8F1000F01DB012001E092
:1009E0004FF0FF30824604EB041000EB40007349E7
:1009F00001EB800090F82600F0B304EB041000EB4C
:100A0000400001EB800090F92600504550D004EBE7
:100A1000041000EB400001EB800090F8550008281E
:100A200046D004EB041000EB400001EB800090F98D
:100A30005500401C00B304EB041000EB400001EB38
:100A40008000C06C002833DD04EB041101EB410190
:100A50005A4A02EB810101F1340006F0A3FF0AFBC0
:100A600005F004EB041101EB4101544A02EB810152
:100A7000C1F8B800022000E01AE004EB041101EB19
:100A8000410102EB810181F82700012004EB0411F0
:100A900001EB410102EB810181F88C00002004EBA5
:100AA000041101EB410102EB810181F8260036E7D8
:100AB0002146284607F1ECFD0746502197FBF1F946
:100AC000B9F1320F01DA4FF032090C2099FBF0FB3B
:100AD000BBF1010F01DA4FF0010B04EB041000EB46
:100AE0004000364901EB80004068D0F80260BAF15E
:100AF000000F09DD3248864202DD6FF0004001E060
:100B000030483044029008E02D48C043864201DA64
:100B1000C00501E02B48301A029004EB041101EBF0
:100B20004101264A02EB810101F134003B46CDE947
:100B3000009B3146029A06F087FB04EB041000EBA1
:100B400040001E4901EB8000C761022004EB041144
:100B500001EB4101194A02EB810181F827000120D4
:100B600004EB041101EB410102EB810181F88C00DF
:100B70004FFA88F004EB041101EB410102EB810113
:100B800081F82600002004EB041101EB410102EB87
:100B90008101C1F8B800B8F1000F01DD0AA000E042
:100BA0000AA003460A4850F824102A4609A007F074
:100BB00015FD00BFB3E60000160000245C08002409
:100BC000FF165B4A00E9A4354657440052455600DB
:100BD0009400002425733A2025642052504D20258E
:100BE000732028532D4375727665290D0A00000085
:100BF0002DE9FF417E48007808B9BDE8FF81002457
:100C00008CE0601C7B490968884200DD85E004EBCC
:100C1000041000EB4000784901EB800090F82800B8
:100C200000B97AE004EB041000EB4000724901EBDC
:100C3000800090F82C0001286ED12046FFF06AFE5B
:100C4000002869D004EB041101EB41016A4A02EB70
:100C500081010E6B002E00DC0526022104EB04123C
:100C600002EB4202644B03EB820282F82C1000215B
:100C700004EB041202EB420203EB820211613146E3
:100C8000204601F055F804EB041101EB41015A4AEA
:100C900002EB8101CD69012202EB041291B20846F8
:100CA00006F066F802AB03AA0146284606F08EFA63
:100CB000DDE90221CDE9001204EB041202EB42024D
:100CC0004D4B03EB8202516904EB041202EB42022A
:100CD00003EB820202F134072B460022384606F06D
:100CE000B3FA04EB041101EB4101434A02EB810129
:100CF000496904EB041202EB42023F4B03EB820210
:100D0000D16004EB041202EB420203EB82022046A4
:100D1000D168FFF045FF00BF00BF641C3748007872
:100D20008442FFF66EAF002417E0601C3149096869
:100D3000884200DD10E004EB041000EB40002E4977
:100D400001EB800090F8280000B905E02046FFF094
:100D5000E1FD00B951E700BF641C284800788442D7
:100D6000E3DB00202249087000242CE004EB04108F
:100D700000EB4000204901EB800090F8280008B308
:100D8000002004EB041101EB41011B4A02EB81013D
:100D900081F8280004EB041101EB410102EB810111
:100DA00081F82C0004EB041000EB4000114601EB2D
:100DB000800090F82700022804D1114801682046DD
:100DC00000F0B6FF641C0D4800788442CEDB0DA015
:100DD00007F004FC114807F001FC114807F0FEFB86
:100DE000074801680FA007F0F9FB00BF05E7000006
:100DF000BC000024280100245C0800241600002404
:100E0000B40000240D0A3D3D3D20486F6D696E67BA
:100E100020446F6E65203D3D3D0D0A00B0FA10087C
:100E2000F4FA10084D6F76652073706565643A209A
:100E300025642052504D0D0A000000002DE9F04FAE
:100E400087B0044604EB041000EB4000FE4901EBC0
:100E50008000807A10B907B0BDE8F08F04EB041071
:100E600000EB4000F84901EB80004068D0F8020038
:100E700004EB041101EB4101F34A02EB81014861EB
:100E800004EB041000EB4000114601EB80004068C9
:100E9000008804EB041101EB410102EB810188841D
:100EA000EA480068401CE9490860C82829D30020A6
:100EB000086004EB041000EB4000114601EB8000D9
:100EC00090F8270004EB041101EB410102EB8101D2
:100ED000C968CDE9001004EB041000EB4000154692
:100EE00005EB8000436904EB041000EB400005EBC8
:100EF00080004068D0F80220D5A0015DD7A007F09F
:100F00006DFB04EB041000EB4000CF4901EB8000C7
:100F100090F8240000F0080000286ED004EB0410C4
:100F200000EB400001EB800090F82A00002878D107
:100F3000012004EB041101EB4101C34A02EB8101E2
:100F400081F82A0004EB041000EB4000114601EB8D
:100F500080004068458904EB041000EB40000B461C
:100F600003EB8000828CC84850F824102B46C7A0A1
:100F700007F034FB44F21021681A8D4231D00CDCAA
:100F8000FDB1B5F5805F20D0B5F50C5F21D0A5F59A
:100F900048501038002839D11FE0A0F58050703833
:100FA000002822D0A0F2C110002822D06FF4E7510F
:100FB0000844002822D0A0F5A050EF38002825D101
:100FC00020E0BEA007F00AFB24E0C7A007F006FB64
:100FD00020E0CBA007F002FB1CE0CEA007F0FEFA59
:100FE00018E0D1A007F0FAFA14E0D4A007F0F6FA5E
:100FF00010E0D8A007F0F2FA0CE053E0DBA007F015
:10100000EDFA07E0DFA007F0E9FA03E0E3A007F05C
:10101000E5FA00BF00BF00E003E0EAA007F0DEFA57
:1010200000BF002004EB041101EB4101864A02EBF2
:10103000810181F8270004EB041101EB410102EB6F
:10104000810181F8260004EB041000EB40001146FA
:1010500001EB8000406904EB041101EB410102EB5C
:101060008101086104EB041000EB4000114601EB24
:101070008000406904EB041101EB410102EB8101A6
:10108000C860002004EB041101EB410102EB810177
:10109000886104EB041101EB410102EB810181F84D
:1010A0008C0009E0002004EB041101EB4101664AC9
:1010B00002EB810181F82A0004EB041000EB4000F0
:1010C000614901EB800090F8270001287ED104EBF4
:1010D000041000EB400001EB800090F8260090BB6C
:1010E00004EB041000EB400001EB80008069002855
:1010F00028DD04EB041000EB400001EB8000806968
:1011000004EB041101EB41014F4A02EB8101096A32
:10111000401A04EB041101EB410102EB81018861EB
:1011200004EB041000EB4000114601EB80008069E5
:10113000002807DA002004EB041101EB410102EB67
:1011400081018861D7E2FFE704EB041000EB400067
:101150003D4901EB8000806904EB041101EB410182
:10116000394A02EB8101C969884239DA04EB04107B
:1011700000EB4000114601EB8000806904EB041194
:1011800001EB410102EB8101096A084404EB0411FF
:1011900001EB410102EB8101886104EB041000EBDB
:1011A0004000114601EB8000806904EB041101EB63
:1011B000410102EB8101C969884210DD04EB041092
:1011C00000EB4000114601EB800000E04EE1C069F9
:1011D00004EB041101EB410102EB8101886121E183
:1011E00004EB041000EB4000174901EB800080691C
:1011F00004EB041101EB4101134A02EB8101C969BF
:1012000088421FDD04EB041000EB4000114601EBA7
:101210008000806904EB041101EB410102EB8101C4
:10122000096A401A04EB041101EB410102EB810150
:10123000886104EB041000EB4000114601EB8000D4
:101240008069D7E0EEE000005C080024D0000024B4
:1012500058595A52555657530000000025633A20FA
:1012600072617750444F3D256C6420656E633D2567
:101270006C64207461726765743D256C64206D6FC9
:1012800064653D25640D0A009400002425733A200E
:101290004641554C542120537461747573576F72D5
:1012A000643D307825303478204572726F72436F18
:1012B00064653D3078253034780D0A0020202D3EBD
:1012C000206E6F206572726F72202872657475725D
:1012D0006E656420746F20302061667465722072C0
:1012E00065736574290D0A0020202D3E2047656E28
:1012F0006572616C206572726F720D0A00000000E9
:1013000020202D3E204F76657263757272656E7473
:101310000D0A000020202D3E204F766572766F6CFE
:10132000746167650D0A000020202D3E20556E6413
:101330006572766F6C746167650D0A0020202D3E22
:1013400020456E636F646572204572726F720D0A7C
:101350000000000020202D3E20456D657267656EFF
:1013600063792053746F700D0A00000020202D3E19
:10137000204D6F746F72205374616C6C65640D0A3C
:101380000000000020202D3E20466F6C6C6F7769B6
:101390006E67204572726F720D0A000020202D3E8C
:1013A00020556E6B6E6F776E206661756C742C20A5
:1013B0007365652053563636304E206D616E75610B
:1013C0006C0D0A0020202D3E2053656E64202752AC
:1013D0004553455427206F722027583A52455345AC
:1013E000542720746F20636C656172206661756C90
:1013F000740D0A0004EB041101EB410102EB8101C1
:10140000C96988420EDA04EB041000EB4000114673
:1014100001EB8000C06904EB041101EB410102EB18
:101420008101886104EB041000EB4000FE4901EBF0
:101430008000C06804EB041101EB4101FA4A02EBA1
:101440008101896904EB041202EB4202F64B03EBC3
:10145000820292F9262001FB020004EB041101EB49
:1014600041011A4602EB8101C860C5E204EB041099
:1014700000EB4000EC4901EB800090F8270090BBA6
:1014800004EB041000EB400001EB800080690028B1
:10149000EBDD04EB041000EB400001EB8000806901
:1014A00004EB041101EB4101DF4A02EB8101096AFF
:1014B000401A04EB041101EB410102EB8101886148
:1014C00004EB041000EB4000114601EB8000806942
:1014D0000028CADA002004EB041101EB410102EB01
:1014E0008101886188E2FFE704EB041000EB400013
:1014F000CD4901EB800090F8270002287DD104EB54
:10150000041000EB400001EB800090F9556004EB03
:10151000041101EB4101C44A02EB810101F13400E5
:1015200006F010F9074604EB041000EB4000BE493A
:1015300001EB8000C76004EB041000EB400001EBFE
:101540008000C06C04EB041101EB4101B64A02EBD0
:101550008101886104EB041000EB4000114601EBAF
:10156000800090F95580B8F1080F7CD1082E7AD010
:10157000002004EB041101EB410102EB81018861C1
:1015800004EB041101EB410102EB810181F88C00B5
:1015900004EB041000EB4000114601EB80004069B1
:1015A000009004EB041000EB40000D4605EB8000BA
:1015B000036904EB041000EB400005EB8000826C33
:1015C0009A4850F824109AA007F008F804EB041188
:1015D00001EB41012A4602EB81010A6904EB041187
:1015E00001EB41012B4603EB8101896C501A002865
:1015F00000DA404204EB041100E07DE001EB410120
:10160000894A02EB8101C96981421DDB04EB0411A7
:1016100001EB410102EB8101096904EB041202EBC9
:101620004202814B03EB8202D16004EB041101EB17
:1016300041011A4602EB81010A6904EB041101EB36
:10164000410103EB81018A6404EB041000EB4000CC
:10165000754901EB8000D0F8B800E0B104EB04104C
:1016600000EB400000E046E001EB8000D0F8B8500D
:10167000002D01DB012001E04FF0FF308146002DFD
:1016800001DB284600E0684282464A465146204631
:10169000FFF73AF92FE004EB041000EB4000624939
:1016A00001EB800090F8260028B304EB041000EB57
:1016B000400001EB800090F8270002281BD104EBCA
:1016C000041101EB4101584A02EB8101C86921462E
:1016D00000F197F90546002D0CDD04EB041000EB3A
:1016E0004000514901EB800090F926202946204610
:1016F000FFF70AF900BF7FE104EB041000EB4000A4
:10170000494901EB800090F8270003287ED104EBC3
:10171000041000EB400001EB800090F98D50002D8B
:1017200003DB52480078854212DB002004EB0411F1
:1017300001EB41013C4A02EB810181F8270004EBF7
:10174000041101EB410102EB810181F88C0051E1B0
:1017500005EB051000EB4000334901EB8000806C85
:10176000059004EB041000EB400001EB8000D0F882
:101770009C100598A0EB010ABAF1000F01DA4FF0B6
:10178000000A04EB041000EB4000274901EB800045
:10179000D0F89400002801DB012001E04FF0FF3079
:1017A000834604EB041000EB40001F4901EB80006E
:1017B000D0F89400002808DB04EB041000EB400094
:1017C00001EB8000D0F8940009E004EB041000EB7A
:1017D0004000154901EB8000D0F89400404204908D
:1017E00004EB041000EB40000F4901EB8000C068DF
:1017F00004EB041101EB41010B4A02EB8101D1F82A
:101800009010401A00FB0BF8049800E0F3E08AFB0C
:10181000006704EB041000EB4000114601EB800070
:10182000D0F89800C11723E05C080024940000243D
:1018300020205B4442475D2025733A20444F4E45AB
:10184000202073706C5F706F733D256C6420206383
:101850006D645F7461726765743D256C64202061FE
:10186000637475616C3D256C640D0A0016000024DC
:1018700002220023CDE90001FEF777FD80197941AE
:10188000CDE9020104EB041000EB4000614901EBDB
:101890008000D0F89800C11702460B46CDE9000140
:1018A000DDE90201FEF761FD814612E004EB041060
:1018B00000EB4000574901EB8000C068584404EB3E
:1018C000041101EB4101534A02EB8101C86008F1A8
:1018D0000108C145EADC04EB041000EB40004D496F
:1018E00001EB8000D0F89800002824DD04EB041000
:1018F00000EB400001EB8000D0F89800C117CDE963
:10190000020105EB051000EB4000424901EB8000AD
:10191000C16C049881FB0010CDE90010084601A9B4
:101920000EC9FEF722FD04EB041101EB4101394A17
:1019300002EB8101886105EB051101EB4101354A9C
:1019400002EB810101F1340006F1F0FFE8B304EB92
:10195000041000EB40002F4901EB8000C06804EB4D
:10196000041101EB41012B4A02EB81010969884214
:1019700024D004EB041101EB410102EB8101096960
:1019800004EB041202EB4202224B03EB8202D26808
:10199000881A012801D0411C79B904EB041101EB2C
:1019A00041011C4A02EB8101096904EB041202EBBC
:1019B0004202184B03EB8202D16000BF002004EB0F
:1019C000041101EB4101134A00E012E002EB810136
:1019D000886104EB041101EB410102EB810181F804
:1019E0008C0004EB041101EB410102EB810181F851
:1019F000270000BF00E000BF04EB041000EB400034
:101A0000044A02EB8000C1682046FFF0C9F800BF1D
:101A1000FFF721BA5C08002470B504460D4604EBBC
:101A2000041000EB40007D4901EB8000058105EBCF
:101A3000C50000EB85107A4901EB8000006A04EBD9
:101A4000041101EB4101754A42F8210005EBC50084
:101A500000EB8510724901EB8000C06A04EB0411B1
:101A600001EB410102EB81014860002004EB04110D
:101A700001EB410102EB8101887204EB041101EBDF
:101A8000410102EB8101886104EB041101EB41018A
:101A900002EB810181F8260004EB041101EB410106
:101AA00002EB810181F827005E480168204600F0C2
:101AB0003FF9002004EB041101EB4101574A02EB0E
:101AC0008101C86004EB041101EB410102EB8101CB
:101AD000086104EB041101EB410102EB8101486153
:101AE00004EB041101EB410152F821100880082099
:101AF00004EB041101EB410152F821108871002020
:101B000004EB041101EB410102EB8101888404EB39
:101B1000041101EB410102EB810181F8280004EB83
:101B2000041101EB410102EB810181F82C0004EB6F
:101B3000041101EB410102EB8101086304EB041184
:101B400001EB410102EB810181F8290004EB041152
:101B500001EB410102EB810181F82B0004EB041140
:101B600001EB410102EB810101F1340005F05FFB63
:101B7000FF2004EB041101EB4101284A02EB810133
:101B800081F88D00002004EB041101EB410102EB10
:101B9000810181F88C00042101EB041188B205F069
:101BA000E7F804EB041101EB41011C4A02EB81014F
:101BB000C1F8A000052101EB041188B205F0D8F8A6
:101BC00004EB041101EB4101144A02EB8101C1F85D
:101BD000A400062101EB041188B205F0C9F804EB5A
:101BE000041101EB41010D4A02EB8101C1F8A8008B
:101BF000002004EB041101EB410102EB8101C1F86B
:101C0000AC00204600F164FC04EB041101EB41013F
:101C1000024A02EB8101C1F8BC0070BD5C080024DF
:101C2000D0350024B400002410B504462046FFF04F
:101C3000B3FE5238092816D2DFE800F00B13150D59
:101C40000F1105070900002010BD0120FCE702204C
:101C5000FAE70320F8E70420F6E70520F4E706207A
:101C6000F2E70720F0E74FF0FF30EDE7B0B50246AE
:101C70000B46012400250020186010782D2802D181
:101C8000A41E521C03E010782B2800D1521C10789F
:101C900008B90020B0BD00210FE0505C302809DBFE
:101CA000505C392806DC0A20A5FB0070505C3038F7
:101CB0003D1801E00020EDE7491C505C0028ECD104
:101CC00001201860A5FB0401E4E7F0B504460E46C8
:101CD000002018600120106020782D2804D14FF0DA
:101CE000FF301060641C03E020782B2800D1641CB6
:101CF000207808B90020F0BD002500210FE0605CCD
:101D0000302809DB605C392806DC605C303805EB84
:101D1000850700EB470501E00020ECE7491C605C0B
:101D20000028ECD135600120186000BFE3E7000017
:101D300070B504460D462146284606F1A9FC04EB81
:101D4000041101EB41010B4A02EB8101C86104EB74
:101D5000041000EB4000114601EB8000C06919211E
:101D600090FBF1F004EB041101EB410102EB810166
:101D7000086270BD5C0800242DE9F84F0446002C71
:101D800003DBE4480078844201DBBDE8F88F20469D
:101D9000FEF0BAFB002004EB041101EB4101DE4A26
:101DA00002EB8101C1F8B80004EB041000EB400025
:101DB000114601EB80004068D0F8020004EB0411EA
:101DC00001EB410102EB8101C860852004F0D0FFE6
:101DD000804600250126002704EB041000EB40009C
:101DE000CD4901EB800090F85500082823D004EB82
:101DF000041000EB400001EB800090F95500401CFE
:101E0000C8B104EB041000EB400001EB8000C06C93
:101E1000002810DD04EB041000EB400001EB800013
:101E2000C56C04EB041000EB400001EB800090F95E
:101E3000546001271BE004EB041000EB4000B6499E
:101E400001EB80008069002811DD04EB041000EB39
:101E5000400001EB8000856904EB041000EB4000BA
:101E600001EB800090F9266006B901260027B8F141
:101E7000000F7CD0002D7ADD04EB041000EB400055
:101E8000A54901EB8000D0F81CB050209BFBF0F975
:101E9000B9F1320F01DA4FF032090C2099FBF0FA58
:101EA000BAF1010F01DA4FF0010AE7BB04EB0410AD
:101EB00000EB4000984901EB8000C16804EB04107E
:101EC00000EB4000944A02EB8000816404EB0410B4
:101ED00000EB4000114601EB8000C564002104EBDB
:101EE000041000EB400002EB8000016504EB0410DD
:101EF00000EB4000114601EB800080F8546004EBD9
:101F0000041000EB400001EB8000C16804EB0410FA
:101F100000EB400002EB80000164032104EB04109D
:101F200000EB400000E003E002EB800080F8551079
:101F300004EB041000EB4000774901EB8000C0F88F
:101F400034B004EB041000EB400001EB8000C0F85B
:101F5000389004EB041000EB400001EB8000C0F867
:101F60003CA004EB041101EB41016B4A00E02EE0C0
:101F700002EB810101F1340005F014FD022004EBB5
:101F8000041101EB4101644A02EB810181F8270051
:101F9000012004EB041101EB410102EB810181F806
:101FA0008C00002004EB041101EB410102EB8101E4
:101FB00081F8260021462846FFF023FD009057486F
:101FC00050F8241056A0009A06F008FBA0E0E7B3F2
:101FD00004EB041000EB40004F4901EB8000C069A6
:101FE000502190FBF1F9B9F1320F01DA4FF03209CB
:101FF0000C2099FBF0FABAF1010F01DA4FF0010A57
:1020000004EB041000EB4000434901EB8000C0F8F2
:10201000389004EB041000EB400001EB8000C0F8A6
:102020003CA004EB041101EB41013B4A02EB8101AE
:1020300001F1340005F0B6FC022004EB041101EBC1
:102040004101354A02EB810100E014E081F82700EC
:10205000012004EB041101EB410102EB810181F845
:102060008C00002004EB041101EB410102EB810123
:1020700081F8260046E004EB041000EB40002649FE
:1020800001EB800090F82700022819D1002004EB12
:10209000041101EB4101204A02EB810181F8260085
:1020A00004EB041101EB410102EB8101886104EBB7
:1020B000041101EB410102EB810181F88C0021E068
:1020C000002004EB041101EB4101134A02EB8101F2
:1020D00081F82600012004EB041101EB410102EB21
:1020E000810181F8270004EB041000EB4000114649
:1020F00001EB8000C06804EB041101EB410102EB2D
:1021000081010861054850F8241011A006F066FA14
:1021100000BF3AE6160000245C0800249400002466
:102120003E3E3E2025733A20534D4F4F5448205396
:10213000544F502028532D43757276652920763DE3
:10214000256C642052504D203C3C3C0D0A000000A0
:102150003E3E3E2025733A2053544F50203C3C3C99
:102160000D0A000070B50446254600E0641C207886
:102170002028FBD020780928F8D0AC4209D003E011
:1021800014F8010B05F8010B20780028F8D128700D
:1021900003E02046FEF742F9051903E00021681E1E
:1021A00005460170A54207D915F8010C2028F5D085
:1021B00015F8010C0928F1D070BD000010B50129F7
:1021C00014D18A0400EB001303EB4303124C04EB1D
:1021D0008303C3F8C02040F2654200EB001303EB19
:1021E000430304EB8303C3F8C42014E04FF400223C
:1021F00000EB001303EB4303074C04EB8303C3F82A
:10220000C02040F6354200EB001303EB430304EB20
:102210008303C3F8C42010BD5C08002400BFFEE7A0
:1022200030B502460B464FF6FF70002112E0545CB9
:10223000604000240AE000F0010525B14AF20105E2
:1022400085EA600000E04010651CECB2082CF2DB6F
:102250004C1CE1B29942EADB30BD000010B500BF72
:102260004C48006800F4003000B139E000BF00BF06
:1022700000BFBFF34F8F00BF00BF00BF00BF00BF54
:1022800000BFBFF36F8F00BF00BF00BF00204249F7
:10229000086000BF00BF00BFBFF34F8F00BF00BF8B
:1022A00000BF00BF00BF00BFBFF36F8F00BF00BF04
:1022B00000BF3848006840F400303649086000BF6D
:1022C00000BF00BFBFF34F8F00BF00BF00BF00BF04
:1022D00000BF00BFBFF36F8F00BF00BF00BF00BFD4
:1022E00000BF2C4B1B6803F4803303B148E000238C
:1022F000284C7034236000BF00BF00BFBFF34F8F76
:1023000000BF00BF00BF231F1868C0F34E3100BFDD
:10231000C0F3C90200BF43F6E07303EA41134FF074
:10232000404404EA827423431B4C1034236000BFF2
:1023300000BF131EA2F10102EDD10B1EA1F101019C
:10234000E6D100BF00BF00BFBFF34F8F00BF00BF8B
:1023500000BF104B1B6843F480330E4C236000BF5A
:1023600000BF00BFBFF34F8F00BF00BF00BF00BF63
:1023700000BF00BFBFF36F8F00BF00BF00BF00BF33
:1023800005484C30006840F0040003494C310860B7
:1023900010BD000014ED00E050EF00E02DE9F04723
:1023A0000546894615B90020BDE8F087484600F18A
:1023B000B3F80446002D01DD284600E0684282465D
:1023C000022200232046E117FDF7CFFF42F6E0622C
:1023D0008AFB0232C71851412246E3173846FDF7FF
:1023E000C4FF0646002D01DD3046DDE77042DBE725
:1023F00000B5B5B000BF3948006840F0010037496A
:1024000008600846006800F00100009000BF00BFAF
:1024100000BF0846006840F00100086008460068F8
:1024200000F00100009000BF00BF012001900020DB
:102430001F9001A801F1F8FE00BF28481030006885
:1024400040F010002549103108600846006800F08F
:102450001000009000BF00BF4FF4007030900220C9
:10246000319001203290022033900720349030A91F
:102470001B4801F1ABFB4FF4806030900720349093
:1024800030A9174801F1A2FB1648174908604FF41C
:1024900061204860002114488160C16001610C2105
:1024A000416100218161C161016200200E498862A1
:1024B000084603F0FBFA00220521252001F15EFD0C
:1024C000252001F147FD08480068006840F0200021
:1024D00005490968086035B000BD0000E0440258B5
:1024E00000000258001001409C10002430B587B055
:1024F000002006904E4801F171FA4EA006F06EF8E9
:102500004FF4004300220121494801F1A3FA044697
:102510003CB121464CA006F061F84FF0FF3007B007
:1025200030BD55A006F05AF8002500BF06AB0022CA
:1025300001213F4801F0E2FF044634B1214657A093
:1025400006F04CF84FF0FF30E9E76D1CB5F57A7FE7
:1025500006DD60A0069906F041F84FF0FF30DEE797
:10256000069800F400400028E0D165A006F036F897
:1025700005AB002201212E4801F0C0FF044604AB48
:10258000012211462A4801F0B9FF044303AB1F2280
:102590000121274801F0B2FF044302AB02220121CE
:1025A000234801F0ABFF044301AB03220121204883
:1025B00001F0A4FF044358A0059906F00FF85DA0B0
:1025C000049906F00BF862A0039906F007F867A0DB
:1025D000029906F003F871A0019905F0FFFF2CB1F4
:1025E0007AA005F0FBFF4FF0FF3098E7029850B952
:1025F000019840B9814805F0F1FF81A005F0EEFF98
:102600004FF0FF308BE740F281110298884204D1ED
:102610004BF681010198884207D088A005F0DEFFC3
:1026200095A0DDE9012105F0D9FF002077E7000042
:10263000300F0024737461727420736F667420729B
:10264000657365740D0A00005B444D393136315DA8
:102650002057726974652042435220536F6674207C
:102660005265736574204641494C45442028727474
:102670006E3D2564290D0A00636865636B20736FE6
:1026800066742072657365742069732066696E696B
:102690007368206F72206E6F740D0A005B444D39B1
:1026A0003136315D205265616420424352206475A9
:1026B00072696E6720726573657420776169742032
:1026C0004641494C4544202872746E3D2564290DCD
:1026D0000A0000005B444D393136315D20536F668E
:1026E000742072657365742054494D454F555420CC
:1026F000284243523D30782530346C58290D0A0069
:10270000736F6674207265736574206973206669DF
:102710006E6973680D0A00005B444D393136315DD6
:102720002042435220202020203D30782530346C38
:10273000580D0A005B444D393136315D2042535209
:1027400020202020203D30782530346C580D0A00A0
:102750005B444D393136315D205048595343535213
:10276000203D30782530346C580D0A005B444D39DB
:102770003136315D2050485949315220203D307862
:102780002530346C58202865787065637465642042
:10279000307830313831290D0A0000005B444D3962
:1027A0003136315D2050485949325220203D307831
:1027B0002530346C58202865787065637465642012
:1027C000307842383831290D0A0000005B444D3919
:1027D0003136315D204552524F523A204D44494FD7
:1027E00020726561642072657475726E656420483C
:1027F000414C5F4552524F520D0A000078F70008D5
:102800005B444D393136315D20436865636B3A2056
:10281000504859207265736574204750494F2C20E9
:102820004D44494F2070756C6C2D75702C205048AC
:102830005920616464726573730D0A005B444D39FD
:102840003136315D205741524E494E473A2050486B
:1028500059204944206D69736D617463682C20624E
:102860007574204D44494F20697320776F726B69EE
:102870006E670D0A000000005B444D393136315D52
:102880002045787065637465642044617669636F80
:102890006D20444D393136312C20676F74205649F4
:1028A000443D30782530346C58205049443D3078D0
:1028B0002530346C580D0A0000B587B000BF47487A
:1028C000006840F48050454908600846006800F4FC
:1028D0008050019000BF00BF00BF40480C3000682E
:1028E00040F004003D490C3108600846006800F0E3
:1028F0000400019000BF00BF00BF0846006840F020
:10290000080008600846006800F00800019000BF59
:1029100000BF00BF0846006840F01000086008468D
:10292000006800F01000019000BF00BF00BF084623
:10293000006840F0200008600846006800F02000B1
:10294000019000BF00BF00BF0846006840F0400093
:1029500008600846006800F04000019000BF00BF1A
:102960004EF2337002900220039001200490032065
:1029700005900C20069002A9194801F127F94FF69D
:102980008070029002A9174801F120F94FF480608D
:10299000029002A9144801F119F94FF40070029055
:1029A00001200390022005900020049002A90F4806
:1029B00001F10CF900224FF400710C4801F10AFA00
:1029C0000120FFF08EFA01225102084801F102FABB
:1029D000C820FFF086FA07B000BD0000D4440258BA
:1029E000000C025800100258001802580008025843
:1029F00000B59BB04C2108A8FDF7EFFC1C2101A8F5
:102A0000FDF7EBFC18480890184809900820019041
:102A1000022002900A2003900F20049000200590CD
:102A20000690079004200A9002210B9100210C913E
:102A300010210D9100210E910F91109181021191A1
:102A4000002112911391149115911691179101AAD9
:102A500001A908A802F062FD18B1E12104A0FFF06D
:102A6000FFFB1BB000BD00000040005204410052BB
:102A70002E2E5C557365725C5372635C444D393025
:102A800030302E630000000010B50248FFF068FDF2
:102A900010BD0000F81D002410B50248FFF060FDD5
:102AA00010BD0000701E0024F0B5856D846D984F38
:102AB0000668BE4270D0964F18370668BE426BD08B
:102AC000934F30370668BE4266D0914F483706684C
:102AD000BE4261D08E4F60370668BE425CD08C4FDC
:102AE00078370668BE4257D0894F90370668BE4295
:102AF00052D0874FA8370668BE424DD0854F066832
:102B0000BE4249D0834F18370668BE4244D0814F39
:102B100030370668BE423FD07E4F48370668BE4217
:102B20003AD07C4F60370668BE4235D0794F78374F
:102B30000668BE4230D0774F90370668BE422BD031
:102B4000744FA8370668BE4226D0734F0668BE424F
:102B500022D0714F14370668BE421DD06E4F283701
:102B60000668BE4218D06C4F3C370668BE4213D090
:102B7000694F50370668BE420ED0674F643706680B
:102B8000BE4209D0644F78370668BE4204D0624F17
:102B90008C370668BE4201D1012600E000263EB116
:102BA000D0E919767E60C66E16B1D0E91C767E60DB
:102BB000574F0668BE4249D0554F18370668BE4287
:102BC00044D0534F30370668BE423FD0504F48374D
:102BD0000668BE423AD04E4F60370668BE4235D0D6
:102BE0004B4F78370668BE4230D0494F9037066861
:102BF000BE422BD0464FA8370668BE4226D0454F6E
:102C00000668BE4222D0434F18370668BE421DD028
:102C1000404F30370668BE4218D03E4F48370668EE
:102C2000BE4213D03B4F60370668BE420ED0394FCC
:102C300078370668BE4209D0364F90370668BE42E4
:102C400004D0344FA8370668BE4201D1012600E007
:102C50000026DEB190F85C6006F01F073F26BE40FC
:102C6000AE600668366826F4802607683E6006680F
:102C700073608668402E04D10668B2600668F16011
:102C800044E00668B1600668F2603FE0224F0668E3
:102C9000BE4222D0204F14370668BE421DD01E4FC0
:102CA00028370668BE4218D01B4F3C370668BE4224
:102CB00013D0194F50370668BE420ED0164F6437F6
:102CC0000668BE4209D0144F78370668BE4204D069
:102CD000114F8C370668BE4201D1012600E0002664
:102CE000A6B190F85C6006F01F070126BE40666042
:102CF000066873608668402E04D10668B260066874
:102D0000F16003E00668B1600668F260F0BD0000A3
:102D1000100002401004024008540258704700217D
:102D200006E04FF4FA7100BF0A1EA1F10101FBD1C8
:102D3000021EA0F10100F4D1704710B500220EE090
:102D400002EB4204C36803EBC40100230B604B6039
:102D50008B60CB6000F1180343F82210521C042A48
:102D6000EED3002484620324036803F58053C3F880
:102D70002C41036803F58053C468C3F81441036809
:102D800003F58053C468C3F8204110BD2DE9F04F0E
:102D900006460B46914606F118042269D4F810C085
:102DA000002754F822109D68BA46C86800F0004019
:102DB000B0F1004F04D004F1140050F8220010B11B
:102DC0000220BDE8F08F187800F00400C8B3C8688E
:102DD0006FF30F00D3F824B040EA0B00C860C86856
:102DE00040F48030C8603068006E40F48010D6F83F
:102DF00000B0CBF86000187800F0080008B3B3F812
:102E00002CB088686BF31F408860C86840F40030BD
:102E1000C860C86820F44020D3F830B040EA0B0006
:102E2000C8603068406E40F48010D6F800B0CBF82F
:102E300064003068006D40F08060D6F800B0CBF8D8
:102E40005000187800F0100058B188686FF30D003A
:102E5000D3F818B040EA0B008860C86840F0806082
:102E6000C860187800F0040018B9187800F0100055
:102E7000F0B1C86840F08040C860C86840F00040C9
:102E8000C86000BF521C042A00D3121F00BF54F8B0
:102E900022107F1CC86800F00040B0F1004F07D13D
:102EA00054F82C10C86820F00040C860022088E761
:102EB0007F1C2868086088686FF30D00D5F804B09F
:102EC00040EA0B008860A86868B1AD68286848606F
:102ED0008868DFF834B200EA0B00B5F804B040EAC5
:102EE0000B40886007E0002048608868DFF818B26F
:102EF00000EA0B008860187800F01000A0B1C868E4
:102F000020F4F000B3F820B040EACB40C860C868B5
:102F10006FF31100D3F81CB040EA0B00C860C8681A
:102F200040F48020C8601FE0C8686FF30E00D3F83B
:102F300004B040EA0B00C860187800F0010038B116
:102F4000C86820F44030D3F814B040EA0B00C860E1
:102F5000187800F0200038B1C86820F04060D3F83D
:102F600010B040EA0B00C860187800F0040038B1D7
:102F7000886820F44040D3F828B040EA0B0088600D
:102F8000C86840F00050C860C86820F08040C86041
:102F9000C86840F00040C860187800F0020038B1FE
:102FA000C86820F06070D3F80CB040EA0B00C8602D
:102FB00085E0C86820F08050C86000BF521C042A19
:102FC00000D3121F00BF54F82210C86820F0005030
:102FD000C860C86800F00040B0F1004F04D004F1B0
:102FE000140050F82200B8B1624654F822104FF095
:102FF00000080DE0C86820F00040C86000BF521C07
:10300000042A00D3121F00BF54F8221008F101084F
:10301000B845EFD30220D4E67F1CAD68286808606D
:1030200088686FF30D00D5F804B040EA0B008860A3
:10303000A86868B1AD68286848608868DFF8C8B0DB
:1030400000EA0B00B5F804B040EA0B40886007E0E6
:10305000002048608868DFF8B0B000EA0B008860A4
:10306000187800F0100060B1C8686FF31100D3F851
:103070001CB040EA0B00C860C86840F48020C860FB
:1030800013E0C8686FF30E00D3F804B040EA0B00F9
:10309000C860187800F0010038B1C86820F44030EA
:1030A000D3F814B040EA0B00C8600AF1010AC868FE
:1030B00040F00040C860C86820F08040C860A86840
:1030C00000287FF476AFB9F1000F04D0886840F093
:1030D0000040886003E0886820F000408860C8688D
:1030E00040F08050C86004F11400D4F824B040F8D7
:1030F00022B0226172B60AF10100D4F828B0584417
:10310000A06262B600205CE6FFFF00C010B5036855
:1031100003F580531B6847F60204A3430C6823435E
:10312000046804F5805423600C798B6843EA043307
:103130000C7B43EAC432036803F580535B684DF2AD
:103140000104A3431343046804F5805463604C7B7B
:103150000B6A43EA0442036803F58053D3F8003155
:10316000164C23401343046804F58054C4F800311E
:103170000C7D0B6943EA04134C7F43EA0432036875
:1031800003F58053D3F804310D4C234013430468F6
:1031900004F58054C4F804310C7F8B6943EAC4728F
:1031A000036803F58053D3F80831064C23401343DA
:1031B000046804F58054C4F8083110BD00C0FEFF57
:1031C000EFEFC0FFFFFFC07F2DE9F04188B004465C
:1031D0000D4616461F46DDF83880234801F0F4FA04
:1031E000224821490860002088600846C0F80C8009
:1031F000002101744174817444618561C661076274
:1032000041638163C16301210164042141640021A0
:1032100001658165C16501210166002141660421C6
:10322000816601F0E9FA18B1012008B0BDE8F0812B
:1032300000200090019002200290012003900020C5
:10324000049005906946084801F06AFA08B1022026
:10325000EBE7054800F1A0FC00220121024800F143
:1032600039FC0020E1E70000F020002400A000402D
:1032700070B50446B3F5804F13D1D1E9000540EA9B
:1032800005108D6840EA05208D6928438D8940EA44
:10329000054054F82250064E3540284344F8220099
:1032A00003E06FF0704044F82200002070BD000081
:1032B0000000F0CF70B50246086852F8200020F0F8
:1032C00001000E6842F826008868082801D14025D0
:1032D00000E00025486828438E683043CE683043BC
:1032E0000E6930434E6930438E693043CE693043B6
:1032F0000E6A30434E6A30438E6A3043CE6A40EAEB
:103300000603086B0343486B0343886B0343114C6C
:1033100044F4801444F4001444F4E024086852F89F
:103320002000A04318430E6842F82600086BB0F551
:10333000801F07D1086828B1106820F480100E6B38
:1033400030431060086818B110684E6B304310604D
:10335000002070BD7FFB080030B50346D1E90005B1
:1033600040EA05108D6840EA05208D8940EA054550
:10337000088A401E45EA0055087D801E45EA006027
:103380008D692843551C53F8255005F040452843C6
:10339000551C43F82500186800F48010B0F5801F14
:1033A0000BD1586820F47004088A401E44EA005487
:1033B000586820F4700020435860002030BD0000A1
:1033C0000146002901DB082902DB4CF2503070472E
:1033D00019B1012901D0022902D14CF25030F6E78F
:1033E00001EB011000EB4000064A02EB800090F870
:1033F000C800012802D148F6A040E8E74CF250305E
:10340000E5E700005C0800240146002901DB0829EB
:1034100002DB4CF25030704719B1012901D002296A
:1034200002D14CF25030F6E701EB011000EB400006
:10343000064A02EB800090F8C800012802D148F645
:10344000A040E8E74CF25030E5E700005C080024BB
:103450000146002901DB082902DB4CF2503070479D
:1034600019B1012901D0022902D14CF25030F6E7FE
:1034700001EB011000EB4000064A02EB800090F8DF
:10348000C800012802D148F6A040E8E74CF25030CD
:10349000E5E700005C0800242DE9F041044601F056
:1034A000B1FB804614B90120BDE8F08194F83500E5
:1034B000022808D08020606500BF002084F8340016
:1034C00000BF0120F0E7FE492068884249D0FC494E
:1034D00018312068884244D0F94930312068884248
:1034E0003FD0F7494831206888423AD0F4496031EA
:1034F0002068884235D0F24978312068884230D03F
:10350000EF499031206888422BD0ED49A8312068DE
:10351000884226D0EB492068884222D0E9491831F8
:10352000206888421DD0E74930312068884218D091
:10353000E44948312068884213D0E249603120686C
:1035400088420ED0DF4978312068884209D0DD49B1
:1035500090312068884204D0DA49A8312068884236
:1035600001D1012000E0002068B12068006820F04F
:103570001E00216808602068406920F080002168F2
:103580004861256806E02068006820F00E00216888
:1035900008602568CA492068884270D0C849183137
:1035A000206888426BD0C64930312068884266D096
:1035B000C34948312068884261D0C14960312068E0
:1035C00088425CD0BE4978312068884257D0BC49D7
:1035D00090312068884252D0B949A8312068884289
:1035E0004DD0B8492068884249D0B6491831206882
:1035F000884244D0B3493031206888423FD0B14935
:103600004831206888423AD0AE496031206888420B
:1036100035D0AC4978312068884230D0A949903102
:10362000206888422BD0A749A8312068884226D03C
:10363000A5492068884222D0A349143120688842D5
:103640001DD0A14928312068884218D09E493C31BC
:103650002068884213D09C495031206888420ED09F
:10366000994964312068884209D0974978312068A7
:10367000884204D094498C312068884201D10120CD
:1036800000E0002028B1206E006820F48070216ED8
:1036900008608B492068884249D0894918312068E0
:1036A000884244D086493031206888423FD08449DE
:1036B0004831206888423AD0814960312068884288
:1036C00035D07F4978312068884230D07C499031AC
:1036D000206888422BD07A49A8312068884226D0B9
:1036E00078492068884222D076491831206888427B
:1036F0001DD0744930312068884218D07149483152
:103700002068884213D06F496031206888420ED00B
:103710006C4978312068884209D06A499031206824
:10372000884204D06749A8312068884206D12068C1
:10373000006820F001002168086005E0206800684A
:1037400020F001002168086011E001F05BFAA0EBB5
:10375000080005280BD92020606500BF002084F8F0
:10376000340000BF032084F8350001209CE628685F
:1037700000F001000028E8D151492068884249D072
:103780004F4918312068884244D04D493031206873
:1037900088423FD04A494831206888423AD0484957
:1037A00060312068884235D04549783120688842A8
:1037B00030D043499031206888422BD04049A8310D
:1037C0002068884226D03F492068884222D03D495F
:1037D0001831206888421DD03A493031206888422B
:1037E00018D0384948312068884213D035496031B3
:1037F000206888420ED0334978312068884209D049
:10380000304990312068884204D02E49A831206880
:10381000884201D1012000E0002040B1A66D94F85B
:103820005C0000F01F013F208840B06007E0A76DFA
:1038300094F85C0000F01F01012088407860204966
:103840002068884276D01E4918312068884271D09D
:103850001B493031206888426CD0194948312068B2
:10386000884267D0164960312068884262D0144986
:103870007831206888425DD01149903120688842B3
:1038800058D00F49A8312068884253D00D4920688C
:1038900088424FD00B491831206888424AD00949E4
:1038A00030312068884245D0064948312068884236
:1038B00040D004496031206888423BD0014905E08E
:1038C0001000024010040240085402587831206869
:1038D00088422FD02549206888422BD023491831AF
:1038E0002068884226D022492068884222D0204978
:1038F0001431206888421DD01D4928312068884233
:1039000018D01B493C312068884213D018495031E7
:10391000206888420ED0164964312068884209D058
:10392000134978312068884204D011498C312068CD
:10393000884201D1012000E0002068B1D4E91910CB
:103940004860E06E40B1E06E006820F48070E16E87
:103950000860D4E91C10486000BF002084F83400DF
:1039600000BF012084F8350000209DE5A00402403E
:103970000854025870B504460CB9012070BD94F883
:103980003500022803D0802060650120F6E7DC497D
:103990002068884249D0DA4918312068884244D0EA
:1039A000D7493031206888423FD0D5494831206816
:1039B00088423AD0D24960312068884235D0D04917
:1039C00078312068884230D0CD49903120688842D3
:1039D0002BD0CB49A8312068884226D0C94920681D
:1039E000884222D0C7491831206888421DD0C54975
:1039F00030312068884218D0C24948312068884256
:103A000013D0C0496031206888420ED0BD4978315A
:103A10002068884209D0BB4990312068884204D090
:103A2000B849A8312068884201D1012000E0002077
:103A3000F0B3042084F83500B149206888424BD0A7
:103A4000AF4918312068884246D0AD4930312068EE
:103A5000884241D0AA494831206888423CD0A849D0
:103A600060312068884237D0A54978312068884283
:103A700032D0A3499031206888422DD0A049A83186
:103A80002068884228D09F492068884224D09D49D8
:103A90001831206888421FD09A4930312068884206
:103AA0001AD0984948312068884215D0954900E0DD
:103AB00020E06031206888420ED092497831206839
:103AC000884209D08F4990312068884204D08D49BE
:103AD000A8312068884206D12068006820F00100E3
:103AE0002168086009E12068006820F00100216871
:103AF000086002E12068006820F00E00216808607C
:103B00007F492068884249D07D4918312068884221
:103B100044D07B493031206888423FD078494831D1
:103B2000206888423AD0764960312068884235D092
:103B3000734978312068884230D0714990312068CB
:103B400088422BD06E49A8312068884226D06D4922
:103B50002068884222D06B491831206888421DD0E5
:103B6000684930312068884218D066494831206859
:103B7000884213D063496031206888420ED0614981
:103B800078312068884209D05E49903120688842A7
:103B900004D05C49A8312068884206D120680068BA
:103BA00020F001002168086005E02068006820F02E
:103BB00001002168086052492068884270D050494D
:103BC0001831206888426BD04D49303120688842D6
:103BD00066D04B4948312068884261D048496031FD
:103BE000206888425CD0464978312068884257D0A6
:103BF000434990312068884252D04149A831206819
:103C000088424DD03F492068884249D03D4918310B
:103C10002068884244D03B493031206888423FD0F8
:103C200038494831206888423AD0364960312068A6
:103C3000884235D0334978312068884230D03149C4
:103C40009031206888422BD02E49A83120688842C4
:103C500026D02D492068884222D02B491431206873
:103C600088421DD0284928312068884218D026492A
:103C70003C312068884213D0234950312068884263
:103C80000ED0214964312068884209D01E4978311C
:103C90002068884204D01C498C312068884201D1B8
:103CA000012000E00020D8B1206E006820F4807070
:103CB000216E0860A56D94F85C0000F01F010120E2
:103CC00088406860D4E919104860E06E40B1E06E49
:103CD000006820F48070E16E0860D4E91C10486030
:103CE00000BF002084F8340000BF012084F83500B4
:103CF000206D10B12046216D884700203EE600006F
:103D00001000024010040240085402582DE9F0410E
:103D100004460D4616461F464FF0000814B9012010
:103D2000BDE8F08100BF94F83400012801D10220E1
:103D3000F6E7012084F8340000BF94F8350001282C
:103D40007ED1022084F8350000206065E4492068B7
:103D5000884249D0E24918312068884244D0E0497D
:103D60003031206888423FD0DD49483120688842A0
:103D70003AD0DB4960312068884235D0D849783163
:103D80002068884230D0D6499031206888422BD0B4
:103D9000D349A8312068884226D0D2492068884279
:103DA00022D0D0491831206888421DD0CD49303109
:103DB0002068884218D0CB4948312068884213D007
:103DC000C8496031206888420ED0C64978312068E1
:103DD000884209D0C34990312068884204D0C14943
:103DE000A8312068884206D12068006820F00100D0
:103DF0002168086005E02068006820F00100216863
:103E000008603B46324629462046FEF74DFEB4493F
:103E1000206888424BD0B24918312068884246D089
:103E2000AF4930312068884241D0AD4948312068DF
:103E300088423CD0AA4960312068884237D000E0EF
:103E400042E1A74978312068884230D0A4499031B6
:103E5000206888422BD0A249A8312068884226D009
:103E6000A0492068884222D09E49183120688842A3
:103E70001DD09C4930312068884218D0994948317A
:103E80002068884213D097496031206888420ED05C
:103E9000944978312068884209D09249903120684D
:103EA000884204D08F49A8312068884201D101207E
:103EB00000E0002080B12068006820F01E0040F083
:103EC000160021680860206CB0B12068006840F0DE
:103ED0000800216808600FE02068006820F00E00EC
:103EE00040F00A0021680860206C28B12068006852
:103EF00040F004002168086079492068884270D049
:103F000077491831206888426BD075493031206874
:103F1000884266D0724948312068884261D0704931
:103F20006031206888425CD06D49783120688842D1
:103F300057D06B4990312068884252D06849A831E7
:103F4000206888424DD067492068884249D0654939
:103F500018312068884244D0624930312068884254
:103F60003FD060494831206888423AD05D4960318D
:103F70002068884235D05B4978312068884230D04B
:103F800058499031206888422BD05649A831206882
:103F9000884226D054492068884222D052491431A0
:103FA000206888421DD0504928312068884218D0A6
:103FB0004D493C312068884213D04B49503120682C
:103FC00088420ED0484964312068884209D0464969
:103FD00078312068884204D043498C312068884277
:103FE00001D1012000E0002090B1206E006800F4B3
:103FF000803028B1206E006840F48070216E086027
:10400000E06E28B1E06E006840F48070E16E0860F8
:1040100033492068884249D03149183120688842A4
:1040200044D02F493031206888423FD02C49483154
:10403000206888423AD02A4960312068884235D0C9
:10404000274978312068884230D02549903120684E
:1040500088422BD02249A8312068884226D02149A5
:104060002068884222D01F491831206888421DD01C
:104070001C4930312068884218D01A4948312068DC
:10408000884213D017496031206888420ED0154904
:1040900078312068884209D01249903120688842DE
:1040A00004D01049A8312068884206D120680068F1
:1040B00040F001002168086010E02068006840F0CE
:1040C00001002168086009E000BF002084F8340086
:1040D00000BF4FF4006060654FF0010840461FE6E6
:1040E00010000240100402400854025870B5044603
:1040F00000F088FD06462546681C10B1044800788B
:10410000054400BF00F07EFD801BA842FAD370BDBD
:104110004000002430B504460D4604F1440050F838
:1041200025100AB1042D02D30120606730BD0A605A
:104130000A61C86840F08070C8602BB18B604B6129
:10414000C86840F00070C860C86840F00040C860AF
:104150000020EBE7024609B90120704710680068AB
:1041600000F00C00C86210680068C0F3001081F80D
:1041700028001068006800F060004862106800685D
:10418000C0F3002080F0010081F820001068006872
:10419000C0F34020C87710680068C0F3802080F02A
:1041A0000100887710680068C0F3C0204877106865
:1041B0000068C0F3003008771068006800F4005011
:1041C00088611068006800F48040486110680068E9
:1041D000C0F30040887410680068C0F3404080F06D
:1041E0000100487410680068C0F3C04080F001000E
:1041F000087410680068C0F30050C8731068006845
:10420000C0F34050887310680068C0F38050487352
:1042100010680068C0F3C05008731068006800F0B0
:10422000E060886010680068C0F3C06008711068C2
:10423000006800F0E040086010684068C0F30D00BE
:10424000486310684068C0F3004080F0010081F8C6
:10425000320010684068C0F3404081F831001068B7
:104260004068C0F3804081F8300010684068C0F3B7
:10427000006081F8380010684068C0F34460C8638B
:104280001068C068C0F3002081F840001068C06862
:1042900000F00F0048641068006FC0F3400081F820
:1042A00054001068006FC0F3C01080F0010081F866
:1042B0004C001068006F00F0700008651068006F17
:1042C000000C88641068D0F8900000F0010081F8BC
:1042D00056001068D0F89000C0F3400081F85500F7
:1042E0001068D0F8000D00F0720088651068D0F8F2
:1042F000300D00F02300C8651068D0F8300DC0F311
:10430000C00081F862001068D0F8300DC0F30010D2
:1043100081F861001068D0F8300DC0F3801080F093
:10432000010081F86000002017E72DE9F84F0546ED
:104330008A4605F14407D7F814800020009057F80A
:10434000286054461CB901206867BDE8F88FB86939
:1043500048B9284600F049F808B90120F5E7D7F830
:10436000148057F828604FF0000B1CE03069206083
:1043700068696060706920B1A468706920606869CC
:104380006060F068C0F30E00009000BF08F1010803
:10439000B8F1040F01D3A8F1040800BF57F8286052
:1043A000A4680BF1010BB869401E5845DED8F068CF
:1043B000C0F30E010098A1EB000930692060686924
:1043C000484502D3C4F804900DE0706948B16869AB
:1043D0006060A468706920606869A9EB0000606093
:1043E00001E00120B1E70020AFE7F0B5074607F193
:1043F0004403196953F821200025002400269869F8
:1044000008B10020F0BD3DE06D1CD06800F0805088
:1044100000B3641C012C00D10E4600BF491C0429C6
:1044200000D3091F00BF53F82120D06800F00040DE
:1044300058B9D06800F0804038B10120D86100BF81
:10444000491C042900D3091F00BF19615E619C61EA
:104450000120D7E7D06800F0005050B10E4601248B
:1044600000BF491C042900D3091F00BF53F82120B5
:1044700008E0641C00BF491C042900D3091F00BFC9
:1044800053F82120D06800F0004008B9042DBBD3B8
:1044900084B319615E61314653F82120002522E082
:1044A000106910604FF08070D060506928B1506979
:1044B0009060D06840F00070D060D06840F000405C
:1044C000D060186A18B1D06840F08040D060601E9B
:1044D000A84207D900BF491C042900D3091F00BF07
:1044E00053F821206D1CA542DAD3386800F58050BE
:1044F000C0F828210020986100BF83E72DE9F0472C
:1045000004460F46904699462068D0F8000200F015
:10451000010010B10120BDE8F0872068D0F80052FA
:1045200025F0787040EA475525F4F81040EA084530
:1045300045F00C0545F001052068C0F8005200F078
:1045400061FB064607E000F05DFB801BB0F57A7F5B
:1045500001D90120DFE72068D0F8000200F0010057
:104560000028F0D12068D0F8040280B2C9F8000019
:104570000020D0E710B50146C86E10285BD123207B
:10458000C866002208E001F1440050F82230D868E3
:1045900040F08040D860521C042AF4D301244C66B9
:1045A0000868006840F002000C6820600868006835
:1045B00040F001000C6820600868D0F8000D40F061
:1045C00001000C68C4F8000D086800F58050D0F8B0
:1045D000040140F00104086800F58050C0F804416F
:1045E000086800F58050D0F8080140F00104086820
:1045F00000F58050C0F80841086800F58050D0F8F8
:10460000600140F48174086800F58050C0F8604192
:10461000086800F58050D0F834014DF24104204381
:104620000C6804F58054C4F834011020C8662220B8
:104630000867002010BD0120FCE72DE9F041044689
:104640000F46154637B9606F40F0010060670120E2
:10465000BDE8F081E06E102856D100223946204690
:10466000FEF794FB28B1606F40F002006067012004
:10467000EEE704F11800A16A50F8218000BFA06A9B
:10468000401CA062A06A042802D3A06A001FA06296
:1046900000BF04F11800A16A50F82110206800F54D
:1046A0008050C0F8201100F0ADFA064625E02068E1
:1046B00000F58050D0F8600100F4805068B1606F60
:1046C00040F008006067206800F58050D0F8600175
:1046D000A067E020E0660120BAE7681C68B100F03E
:1046E00091FA801BA84200D83DB9606F40F00400E9
:1046F0006067E020E0660120AAE7D8F80C0000F02F
:1047000000400028D3D1A3E70120A1E703480068B7
:1047100040F0010001490860704700002004005883
:10472000F0B5024692F89860012E01D0022E43D1D6
:10473000C868072800D100BF086818BBC8680728E8
:1047400000D000BFC86807280BD1088A4FF0605717
:1047500047EA0040CF6940EA07208F6940EA070432
:104760000AE0087A80070F7B40EAC7600F8A40EAB8
:1047700007404F6940EA0704D76E486807EB80039B
:104780001C6017E0C868072800D000BF0F7B0869CD
:1047900040EA4774C868072801D18D6903E00F7AA1
:1047A000486940EA8775176F486807EBC0031C60CB
:1047B0001B1D1D600020F0BDD2F89C0040F00200DF
:1047C000C2F89C000120F6E710B504460CB90120A0
:1047D00010BD204600F0BEF92068C06D20F0030037
:1047E0002168C8652046FFF0C9F90020C4F89C0084
:1047F00084F8980000BFEBE770B594B004464C22F3
:10480000B34901A8FBF03FFC14B9012014B070BDFE
:10481000B0492068884203D1206800F5807060604C
:10482000A068B0F5407F00D100BF206C00B100BF90
:10483000A06C00B100BF206D00B100BF206E00B1C0
:1048400000BFD4E91710084400B100BF94F89800E5
:1048500028B9002084F89900204600F03DF920682E
:10486000806920F010002168886100F0CBF90546CE
:104870000EE000F0C7F9401B0A2809D99834606897
:1048800040F001006060032004F898090120BDE7B2
:104890002068806900F008000828EAD02068806954
:1048A00040F001002168886100F0ACF905460EE097
:1048B00000F0A8F9401B0A2809D99834606840F034
:1048C00001006060032004F8980901209EE7206839
:1048D000806900F001000028EAD02068806940F07B
:1048E000020021688861207C012806D12068806947
:1048F00020F040002168886105E02068806940F070
:10490000400021688861607C012806D120688069A8
:1049100040F480402168886105E02068806920F4C7
:10492000804021688861A07C012806D120688069C8
:1049300020F480502168886105E02068806940F497
:104940008050216888612068806920F44070A168E7
:104950000843216888612068806920F0A4002168EC
:1049600088612068006920F0100021680861E06813
:10497000012806D12068806940F004002168886120
:1049800020E0E068F0B1E068022815D02068806976
:1049900040F08000216888612068006940F01000C4
:1049A00021680861E06803280CD12068806940F024
:1049B00020002168886105E02068806940F02000BF
:1049C00021688861207E401E4106E069401E41EA60
:1049D0000020216A491E0843A18A491E40EA01407D
:1049E0002168C861A068B0F5407F0FD1A06A401E61
:1049F000E16A491E40EA0121206B401E41EA001194
:104A0000A08C401E41EA00402168C860206E38B189
:104A10002068D0F8C000616E08432168C1F8C0006A
:104A2000D4E91710084460B12068D0F8C80020F01D
:104A3000070001AAA16E52F8211008432168C1F8AD
:104A4000C800206C60B12068D0F8BC0020F00700DE
:104A500001AA616C52F8211008432168C1F8BC001A
:104A6000A06C68B12068D0F8BC0020F0700101AAE9
:104A7000E06C52F8200041EA00102168C1F8BC0047
:104A8000206D68B12068D0F8BC0020F4E06101AA74
:104A9000606D52F8200041EA00202168C1F8BC0096
:104AA0000C492068884205D16068806820F00300C6
:104AB00061688860002044F8940FA0600120207194
:104AC000943C2046FDF0D0FB064630469EE60000B2
:104AD0008CD5000800A0004010B5B6B0044600BF59
:104AE0001A48006840F48070184908600846006859
:104AF00000F48070019000BF00BF00BF13480C3865
:104B0000006840F0020011490C390860084600684E
:104B100000F00200019000BF00BF4FF4004002907F
:104B200040031D9002A8FFF07FFB4FF440703190CE
:104B3000022032900120339034900920359031A921
:104B40000348FFF043F836B010BD0000EC440258B3
:104B5000000402580146002291F89800022842D130
:104B60000868806940F001000B6898610CE0322A07
:104B700009D99831486840F001004860032001F8E5
:104B8000980901207047521C0868806900F00100F4
:104B90000028ECD000220868806920F010000B6823
:104BA00098610CE0322A09D99831486840F0010038
:104BB0004860032001F898090120E3E7521C0868C7
:104BC000806900F008000828ECD00868806940F08F
:104BD00002000B6898610020C1F89400012081F860
:104BE00098000020CEE7D1F89C0040F00800C1F802
:104BF0009C000120C6E7000001480068000C7047D7
:104C00000010005C01480068704700003800002474
:104C1000034800680349097808440149086070475F
:104C2000380000244000002410B5032000F05AF89A
:104C300000F05EFB10490968C1F303210F4A515C83
:104C400001F01F0120FA01F40B48006800F00F008A
:104C50001146085C00F01F0024FA00F008490860C3
:104C6000084804600F20FFF0BBF808B1012010BD18
:104C7000FFF03CF90020FAE71844025854D5000828
:104C800004000024000000244178154A11600178D6
:104C9000F9B1121D41681160017B0907C27A41EA2E
:104CA0000261827A41EAC241427B41EA8241827BCF
:104CB00041EA4241C27B41EA0241427A41EA022191
:104CC000027A41EA420102781143054A0832116032
:104CD00005E00021024A121D1160121D116070478B
:104CE00098ED00E000BF00F00702064B19684FF690
:104CF000FF031940044B0B4343EA0221014B1960A7
:104D000000BF70470CED00E00000FA0510B500F0A0
:104D1000B7FA05490968C1F30211044A515C01F070
:104D20001F01C84010BD00002044025854D500089F
:104D300070B50146844D2D6805F00303824D2D6842
:104D4000C5F30530804D2D1D2D68C5F300147E4D33
:104D500014352D68C5F3CC0515FB04F501EE105A8A
:104D6000B8EE411AF0EE410A00286FD023B1012BB2
:104D70004ED0022B6BD16BE0734D283D2D68C5F3EF
:104D800040153DB3704D283D2D68C5F3C1066F4DEC
:104D900025FA06F201EE102AF8EE411A01EE100A89
:104DA000B8EE411A81EE812A9FED691AC0EE811A90
:104DB000654D10352D68C5F3080501EE105AB8EEA3
:104DC000411A31EE811AF7EE001A31EE211A22EE65
:104DD000010A1CE001EE100AB8EE411ADFED5D1A7F
:104DE00081EE812A9FED5A1AC0EE811A564D103578
:104DF0002D68C5F3080501EE105AB8EE411A31EEE0
:104E0000811AF7EE001A31EE211A22EE010A5BE058
:104E100001EE100AB8EE411ADFED4F1A81EE812A39
:104E20009FED4B1AC0EE811A474D10352D68C5F322
:104E3000080501EE105AB8EE411A31EE811AF7EE6C
:104E4000001A31EE211A22EE010A3DE077E01DE062
:104E500001EE100AB8EE411A9FED402AC2EE011A87
:104E60009FED3B1A80EE812A374D10352D68C5F332
:104E7000080501EE105AB8EE411A32EE011AB7EEEB
:104E8000002A31EE021A21EE810A1DE001EE100A1D
:104E9000B8EE411ADFED301A81EE812A9FED2C1A0F
:104EA000C0EE811A284D10352D68C5F3080501EEB6
:104EB000105AB8EE411A31EE811AF7EE001A31EEAF
:104EC000211A22EE010A00BF00BF1F4D10352D68C8
:104ED000C5F3462501EE105AB8EE411AF7EE001A56
:104EE00031EE211AC0EE011ABCEEE11A81ED001A72
:104EF000154D10352D68C5F3064501EE105AB8EE74
:104F0000411AF7EE001A31EE211AC0EE011ABCEE7A
:104F1000E11A81ED011A0C4D10352D68C5F30665B7
:104F200001EE105AB8EE411AF7EE001A31EE211ACE
:104F3000C0EE011ABCEEE11A81ED021A03E0002571
:104F40000D604D608D6070BD284402580090D00304
:104F5000000000460024744C0024744A20BCBE4B60
:104F60002DE9F04104460D4614B90120BDE8F08159
:104F7000BD48006800F00F00A8420ED2BA48006891
:104F800020F00F002843B84908600846006800F088
:104F90000F00A84201D00120E8E7207800F00400CB
:104FA00004280ED1B1492069096801F070018842D6
:104FB00007D9AE48006820F0700021690843AB496A
:104FC0000860207800F00800082811D1A749091DC1
:104FD0006069096801F07001884209D9A348001D81
:104FE000006820F0700061690843A049091D08604D
:104FF000207800F01000102811D19C49091DA069EB
:10500000096801F4E061884209D99848001D0068E8
:1050100020F4E060A16908439449091D08602078E4
:1050200000F02000202811D190490831E06909687A
:1050300001F07001884209D98C480830006820F0DE
:105040007000E1690843894908310860207800F060
:10505000020002280ED18549E068096801F00F01BD
:10506000884207D98148006820F00F00E1680843B2
:105070007E490860207800F00100002850D07B486D
:10508000006820F47060A16808437849086060688F
:10509000022807D1754818380068C0F34040F8B9B5
:1050A000012063E76068032807D17048183800685A
:1050B000C0F34060A0B9012058E76068012807D11B
:1050C0006A4818380068C0F3002048B901204DE74D
:1050D000664818380068C0F3800008B9012045E729
:1050E00062480838006820F00700616808435F499B
:1050F00008390860FFF786FD064608E0FFF782FDE5
:10510000801B41F28831884201D903202EE757489D
:105110000838006800F038006168B0EBC10FEDD1CD
:10512000207800F0020002280ED15049E06809689A
:1051300001F00F01884207D24C48006820F00F00B0
:10514000E1680843494908604748006800F00F00DB
:10515000A8420ED94448006820F00F002843424975
:1051600008600846006800F00F00A84201D0012046
:10517000FCE6207800F0040004280ED13B492069A9
:10518000096801F07001884207D23848006820F0B1
:1051900070002169084335490860207800F0080054
:1051A000082811D13149091D6069096801F07001B1
:1051B000884209D22D48001D006820F07000616906
:1051C00008432A49091D0860207800F010001028C3
:1051D00011D12649091DA069096801F4E0618842DE
:1051E00009D22248001D006820F4E060A16908434C
:1051F0001E49091D0860207800F02000202811D1E8
:105200001A490831E069096801F07001884209D241
:1052100016480830006820F07000E169084313491F
:105220000831086000F064F810490968C1F30321EF
:105230000F4A515C01F01F0120FA01F70B4800688A
:1052400000F00F001146085C00F01F0027FA00F084
:10525000084908600848076008480068FEF0C0FD7B
:105260008046404682E60000002000521844025862
:1052700054D5000804000024000000243C00002451
:1052800010B500F035F80D490968C1F303210C4A47
:10529000515C01F01F0120FA01F40848006800F099
:1052A0000F001146085C00F01F0024FA00F00549C9
:1052B0000860054804600846006810BD184402589C
:1052C00054D50008040000240000002400B5FFF7B6
:1052D000D7FF05490968C1F30211044A515C01F086
:1052E0001F01C84000BD00001C44025854D50008EE
:1052F000F0B5824E366806F0380636B1082E15D065
:10530000102E15D0182E7DD114E07C4E103E36683C
:10531000C6F3401646B1794E103E3668C6F3C10753
:10532000774E26FA07F000E07548E5E07548E3E0BF
:105330007548E1E0714E1836366806F003046F4E8A
:1053400018363668C6F305116C4E1C36366806F002
:1053500001056A4E24363668C6F3CC0616FB05F600
:1053600001EE106AB8EE410A002971D024B1012C77
:1053700050D0022C6DD16DE0604E103E3668C6F301
:1053800040163EB35D4E103E3668C6F3C1075C4E14
:1053900026FA07F301EE103AF8EE411A01EE101A60
:1053A000B8EE411A81EE812A9FED581AC0EE011A1B
:1053B000524E20363668C6F3080601EE106AB8EE83
:1053C000411A31EE811AF7EE001A31EE211A62EE1F
:1053D000010A1EE001EE101AB8EE411ADFED4C1A78
:1053E00081EE812A9FED491AC0EE011A434E203604
:1053F0003668C6F3080601EE106AB8EE411A31EEBF
:10540000811A00E076E0F7EE001A31EE211A62EE22
:10541000010A5BE001EE101AB8EE411A9FED3D2A39
:10542000C2EE011A9FED391A80EE012A334E203662
:105430003668C6F3080601EE106AB8EE411A32EE7D
:10544000011AB7EE002A31EE021A61EE810A3DE040
:105450004EE01DE001EE101AB8EE411ADFED2E1AF3
:1054600081EE812A9FED291AC0EE011A234E2036C3
:105470003668C6F3080601EE106AB8EE411A31EE3E
:10548000811AF7EE001A31EE211A62EE010A1DE0D0
:1054900001EE101AB8EE411A9FED1E2AC2EE011A53
:1054A0009FED1A1A80EE012A144E20363668C6F394
:1054B000080601EE106AB8EE411A32EE011AB7EE94
:1054C000002A31EE021A61EE810A00BF00BF0B4EC6
:1054D00020363668C6F34626721C01EE102AB8EE56
:1054E000411AC0EE811ABCEEE11A11EE100A00E07A
:1054F000002001E0034800BF00BFF0BD1044025887
:105500000090D00300093D0040787D010000004676
:105510000024744C0024744A20BCBE4B70B5044671
:105520000E4615460CB9012070BD94F8450028B907
:10553000002084F84400204600F162F804F10801DC
:105540002068FDF7B7FE3146A2682068FDF704FF2A
:105550002946E36AD4E90102FDF78AFEA1682068C2
:1055600050F8210040F00100A268216841F82200B3
:105570000548006840F0004003490860012084F8B5
:1055800045000020D0E700000040005203490968B0
:1055900021F460010143014A11607047040400587E
:1055A0007047000038B5044621492068884216D16A
:1055B00000BF2048006840F001001E49086008460E
:1055C000006800F00100009000BF00BF002205212C
:1055D0001920FEF0D3FC1920FEF0BCFC27E0206867
:1055E000B0F1804F0FD100BF12480838006840F07A
:1055F00001001049083908600846006800F0010001
:10560000009000BF13E00C49206888420FD100BF12
:1056100008480838006840F0020006490839086068
:105620000846006800F00200009000BF00BF38BDCF
:1056300000000140F044025800040040014691F887
:105640003D00012801D001207047022081F83D0073
:105650000868C06840F001000B68D8601A4B086801
:10566000984217D00868B0F1804F13D0174B0868E4
:1056700098420FD0164B086898420BD0154B08681B
:10568000984207D0144B0868984203D0134B08681F
:10569000984210D108688068114B00EA0302062A7C
:1056A0000FD0B2F5803F0CD00868006840F00100D0
:1056B0000B68186005E00868006840F001000B689E
:1056C00018600020C0E70000000001400004004016
:1056D00000080040000C0040000401400018004099
:1056E000070001002DE9F04104460D4600BF94F883
:1056F0003C00012802D10220BDE8F081012084F89D
:105700003C0000BF022084F83D00206886684048C5
:10571000064026F47F46206886602868702826D0D8
:105720000CDC00F00F01002966D10011072863D2BC
:10573000DFE800F0555657584B374100B0F1101FC5
:1057400052D009DCB0F5805F10D0B0F5005F1BD0FF
:10575000B0F5801F50D146E0A0F580102038002819
:1057600043D0102842D0202846D140E045E0D5E97A
:1057700002136A68206802F001FB2068866846F020
:1057800077062068866038E0D5E902136A682068E9
:1057900002F0F4FA2068806840F480402168886054
:1057A0002BE0EA686968206802F000FB502120685D
:1057B00002F0F0FA21E0EA686968206802F009FB6B
:1057C0006021206802F0E6FA17E0EA68696820685C
:1057D00002F0ECFA4021206802F0DCFA0DE000BF94
:1057E00000BF00BF00BF00BF00BF00BF00BF2968EF
:1057F000206802F0CFFA00E000BF00BF012084F86B
:105800003D0000BF002084F83C0000BF00BF73E7EC
:1058100088FFCEFF10B5044620680069C0F3400041
:10582000D8B12068C068C0F34000B0B16FF002008A
:1058300021680861012020772068806900F003005A
:1058400018B12046FFF077FF05E0204600F0BEF8D3
:105850002046FFF071FF0020207720680069C0F328
:105860008000D8B12068C068C0F38000B0B16FF08C
:10587000040021680861022020772068806900F414
:10588000407018B12046FFF056FF05E0204600F0BA
:105890009DF82046FFF050FF002020772068006927
:1058A000C0F3C000D8B12068C068C0F3C000B0B178
:1058B0006FF0080021680861042020772068C06923
:1058C00000F0030018B12046FFF035FF05E0204648
:1058D00000F07CF82046FFF02FFF002020772068A2
:1058E0000069C0F30010D8B12068C068C0F3001090
:1058F000B0B16FF01000216808610820207720689F
:10590000C06900F4407018B12046FFF014FF05E0B4
:10591000204600F05BF82046FFF00EFF00202077C5
:105920002068006900F0010058B12068C06800F0EC
:10593000010030B16FF0010021680861204600F0DD
:1059400047F820680069C0F3C01058B12068C068EB
:10595000C0F3C01030B16FF08000216808612046AC
:10596000FFF71EFE20680069C0F3002058B12068D0
:10597000C068C0F3C01030B16FF480702168086156
:105980002046FFF03EFE20680069C0F3801058B149
:105990002068C068C0F3801030B16FF0400021680B
:1059A0000861204600F04CF820680069C0F3401000
:1059B00058B12068C068C0F3401030B16FF02000CB
:1059C000216808612046FFF01DFE10BD70470000F1
:1059D00038B5044615492068096888421FD1144823
:1059E0000068012819D10020009004F1EBFB114858
:1059F000006888B16A4600210E48006807F05CFB29
:105A000000BF009838B14FF080500B490860BFF3D9
:105A10004F8FBFF36F8F00BF01E004F1D3FB074945
:105A20002068884201D1FFF7F3F838BDB80F002491
:105A3000100000240800002404ED00E000140040E1
:105A400070472DE9F04104460E461746D4F8880009
:105A5000202827D106B117B90120BDE8F08100BF89
:105A600094F88000012801D10220F6E7012084F893
:105A7000800000BFE0663A463146204602F054FD01
:105A800005466DB9E06E012809D110202168086231
:105A90002068006840F010002168086000E00125DF
:105AA0002846DAE70220D8E77047704710B5044669
:105AB0000CB9012010BDA06900B100E000BFD4F80E
:105AC000840028B9002084F88000204600F02AF8DD
:105AD0002420C4F884002068006820F001002168B8
