:020000040800F2
:10000000287102246D030008CD5F00082D50000800
:100010004D510008391D0008397C0008000000001F
:10002000000000000000000000000000AD02000819
:10003000C7220008000000000903000855720008EC
:100040008703000887030008870300088703000868
:100050008703000887030008870300088703000858
:100060008703000887030008870300088703000848
:10007000B11F000887030008C11F0008870300089C
:100080008703000887030008870300088703000828
:100090008703000887030008870300088703000818
:1000A000870300088D730008870300088703000892
:1000B00087030008870300088703000887030008F8
:1000C00087030008870300088703000887030008E8
:1000D00087030008897B000887030008297C000843
:1000E000870300088703000800000000870300085A
:1000F00087030008870300088703000887030008B8
:1001000087030008870300088703000887030008A7
:100110008703000887030008870300089D73000811
:100120008703000887030008870300088703000887
:100130008703000887030008870300088703000877
:1001400000000000000000000000000000000000AF
:100150008703000887030008870300088703000857
:100160008703000887030008870300088703000847
:1001700087030008870300088703000800000000C9
:100180008703000887030008870300088703000827
:100190008703000887030008870300088703000817
:1001A0008703000887030008870300088703000807
:1001B00087030008870300088703000887030008F7
:1001C00087030008870300088703000887030008E7
:1001D00087030008870300088703000887030008D7
:1001E00087030008870300088703000887030008C7
:1001F00087030008870300088703000887030008B7
:1002000087030008870300088703000887030008A6
:100210008703000887030008870300088703000896
:100220008703000887030008870300080000000018
:100230008703000887030008000000008703000808
:100240008703000887030008870300088703000866
:100250008703000887030008870300088703000856
:100260008703000887030008870300088703000846
:1002700087030008870300088703000800000000C8
:1002800087030008870300088703000800000000B8
:100290000000000087030008DFF80CD000F002FA2D
:1002A0000048004721B40008287102242C4B19682B
:1002B0000868B0E8F04F80F30988BFF36F8F4FF004
:1002C000000080F3118870470000000008480068B3
:1002D000006880F308884FF0000080F3148862B64D
:1002E00061B6BFF34F8FBFF36F8F00DF00BF00BF5A
:1002F00008ED00E0DFF80C00016841F470010160D6
:10030000704700BF88ED00E0EFF30980BFF36F8F07
:10031000134B1A681EF0100F08BF20ED108A20E959
:10032000F04F106009B44FF0500080F31188BFF314
:100330004F8FBFF36F8F0CF089FF4FF0000080F3F9
:10034000118809BC19680868B0E8F04F1EF0100F5A
:1003500008BFB0EC108A80F30988BFF36F8F704735
:1003600090010024EFF305807047000006488047A5
:1003700006480047FEE7FEE7FEE7FEE7FEE7FEE78A
:10038000FEE7FEE7FEE7FEE7897200089902000833
:100390002DE9F05F0546002092469B4688460646BA
:1003A000814640241BE0284641464746224600F04D
:1003B0003BF853465A46C01A914110D3114618468D
:1003C0002246FFF0A7FE2D1A67EB01084F46224692
:1003D00001200021FFF09EFE17EB00094E41201E78
:1003E000A4F10104DFDC484631462A464346BDE815
:1003F000F09F40EA01039B0703D009E008C9121FE0
:1004000008C0042AFAD203E011F8013B00F8013BCE
:10041000521EF9D27047034611F8012B00F8012B48
:10042000002AF9D118467047202A04DB203A21FA25
:1004300002F00021704721FA02F3D040C2F12002FD
:1004400091400843194670472DE9FE4F804681EAE6
:100450000300C00F0C46009021F0004123F000453E
:10046000B8EB0200A94105D24046214690461C4601
:100470000B46024623F00040104347D0270DC7F338
:100480000A00C3F30A510290401A019040286BDA27
:10049000C3F3130040F4801B0098924620B1002360
:1004A000D2EB030A63EB0B0B01985946C0F14002F3
:1004B0005046FFF02FFE06460D4650465946019A1B
:1004C000FFF01EFF10EB08006141002487EA115283
:1004D00084EAE7731A4340D0009A62B3019A012A72
:1004E0004FEA075215DC001B61EB02014FF000429E
:1004F00002EA0752CDE90042001C41F58011324664
:100500002B46FFF025FE03B0BDE8F08F40462146A4
:10051000F9E7001B61EB0201001C41F58013001894
:100520005B412018A2F5001747EB030140EAD570A4
:10053000B6196D4111E06D084FEA360645EAC075FF
:100540004FEA0752001B61EB0201001C41F58011CC
:1005500049084FEA30000019514132462B4603B09A
:10056000BDE8F04FFFF0E5BD0098012240000023F8
:10057000D0EB020263EBE073009821464FEAE0748F
:10058000B8EB000061EB0401E9E783F000435BE7AF
:1005900081F0004158E72DE9F04D81EA030404F0B1
:1005A000004B21F0004514464FF0000A23F00041B3
:1005B00050EA050220D054EA01021DD0C5F30A57C3
:1005C0000246C5F31303C1F31300C1F30A5640F406
:1005D000801543F48013A7EB0608101BD64608F2DB
:1005E000FD3873EB050002D308F1010801E0921811
:1005F0005B41B8F1000F03DA00200146BDE8F08D41
:1006000000204FF48011064684460EE0171B73EB62
:10061000050705D3121B63EB050306434CEA010CE7
:1006200049084FEA300092185B4150EA0107EDD1CA
:1006300052EA030012D082EA040083EA050108436B
:1006400005D0101BAB4106D20122002306E0002298
:100650004FF0004302E06FF0010253101AEB060066
:100660004CEB085110EB0A0041EB0B01BDE8F04DDB
:10067000FFF05FBDC1F30A52C1F3130140F2FF3333
:1006800041F480119A4202DA00200146704740F29C
:1006900033439A42A2F2334202DC5242FFF7C4BE15
:1006A000FFF038BD064C074D06E0E06840F001035E
:1006B00094E8070098471034AC42F6D3FFF7F0FDFA
:1006C0007CFA00089CFA00082DE9FF4704460F4613
:1006D000002C03DB57480078844201DBBDE8FF872C
:1006E000204600F0C9F8032C40D104EB041000EBC5
:1006F0004000514901EB8000D0F8BC50002D03DCD4
:10070000204602F0ADF9054697FBF5F005FB1078A1
:10071000B8F1000F00DAA84404EB041000EB40002D
:10072000454901EB8000406990FBF5F105FB11099B
:10073000B9F1000F00DAA944A8EB0906284605EB39
:10074000D0714FEA610A564501DD761B04E0CAF11B
:100750000000864200DA2E4404EB041000EB400057
:10076000354901EB80004069871900BF022004EB86
:10077000041101EB4101304A02EB810181F82700AD
:1007800004EB041000EB4000114601EB8000076110
:100790002A480168204600F11DFA012004EB0411EB
:1007A00001EB4101244A02EB810181F88C0004EB4A
:1007B000041000EB4000114601EB8000C5690121E7
:1007C00001EB041188B205F0BFFC064602AB03AA98
:1007D0003146284608F162FD032C01D103980290AE
:1007E000DDE9021004EB041202EB4202124B03EBB0
:1007F0008202CDE90001516904EB041202EB4202CE
:1008000003EB820202F134002B463A4606F02FF841
:10081000032C01D10AA000E00CA000900D4850F874
:10082000241006483A4603680BA009F14BFA00BFB2
:1008300054E70000160000245C080024B4000024E3
:1008400054726170657A6F6964000000532D4375BE
:10085000727665009400002425733A20474F544F68
:1008600020706F733D2564202825642052504D2947
:100870002025730D0A00000010B50446002C03DB90
:1008800012480078844200DB10BD04EB041000EB3A
:1008900040000F4901EB800090F8280098B100203B
:1008A00004EB041101EB4101094A02EB810181F8DB
:1008B000280004EB041101EB410102EB810181F8F6
:1008C0002C0001F0FBF900BFDEE700001600002459
:1008D0005C0800242DE9F04F87B0044604EB0410B7
:1008E00000EB4000FE4901EB8000807A10B907B0B0
:1008F000BDE8F08F04EB041000EB4000F84901EB79
:1009000080004068D0F8020004EB041101EB4101C3
:10091000F34A02EB8101486104EB041000EB400054
:10092000114601EB80004068008804EB041101EBE4
:10093000410102EB81018884EA480068401CE949D2
:100940000860C82829D30020086004EB041000EBDD
:100950004000114601EB800090F8270004EB0411E1
:1009600001EB410102EB8101C968CDE9001004EB04
:10097000041000EB4000154605EB8000436904EBD2
:10098000041000EB400005EB80004068D0F8022026
:10099000D5A0015DD7A009F195F904EB041000EB97
:1009A0004000CF4901EB800090F8240000F00800DF
:1009B00000286ED004EB041000EB400001EB800037
:1009C00090F82A00002878D1012004EB041101EBF3
:1009D0004101C34A02EB810181F82A0004EB0410B3
:1009E00000EB4000114601EB80004068458904EBB4
:1009F000041000EB40000B4603EB8000828CC848DB
:100A000050F824102B46C7A009F15CF944F21021DC
:100A1000681A8D4231D00CDCFDB1B5F5805F20D075
:100A2000B5F50C5F21D0A5F548501038002839D114
:100A30001FE0A0F580507038002822D0A0F2C1102D
:100A4000002822D06FF4E7510844002822D0A0F5F6
:100A5000A050EF38002825D120E0BEA009F132F9DE
:100A600024E0C7A009F12EF920E0CBA009F12AF972
:100A70001CE0CEA009F126F918E0D1A009F122F975
:100A800014E0D4A009F11EF910E0D8A009F11AF978
:100A90000CE053E0DBA009F115F907E0DFA009F154
:100AA00011F903E0E3A009F10DF900BF00BF00E078
:100AB00003E0EAA009F106F900BF002004EB0411ED
:100AC00001EB4101864A02EB810181F8270004EB2A
:100AD000041101EB410102EB810181F8260004EBD6
:100AE000041000EB4000114601EB8000406904EB6C
:100AF000041101EB410102EB8101086104EB0410D8
:100B000000EB4000114601EB8000406904EB04114A
:100B100001EB410102EB8101C860002004EB0411EC
:100B200001EB410102EB8101886104EB041101EB4F
:100B3000410102EB810181F88C0009E0002004EB07
:100B4000041101EB4101664A02EB810181F82A00A0
:100B500004EB041000EB4000614901EB800090F8C9
:100B6000270001287ED104EB041000EB400001EBCC
:100B7000800090F8260090BB04EB041000EB4000CE
:100B800001EB80008069002828DD04EB041000EBF5
:100B9000400001EB8000806904EB041101EB41018E
:100BA0004F4A02EB8101096A401A04EB041101EB80
:100BB000410102EB8101886104EB041000EB40006D
:100BC000114601EB80008069002807DA002004EB61
:100BD000041101EB410102EB81018861D7E2FFE7DB
:100BE00004EB041000EB40003D4901EB80008069FC
:100BF00004EB041101EB4101394A02EB8101C9699F
:100C0000884239DA04EB041000EB4000114601EB96
:100C10008000806904EB041101EB410102EB8101CA
:100C2000096A084404EB041101EB410102EB810164
:100C3000886104EB041000EB4000114601EB8000DA
:100C4000806904EB041101EB410102EB8101C969E8
:100C5000884210DD04EB041000EB4000114601EB6C
:100C6000800000E04EE1C06904EB041101EB41019A
:100C700002EB8101886121E104EB041000EB4000EC
:100C8000174901EB8000806904EB041101EB41017D
:100C9000134A02EB8101C96988421FDD04EB04108D
:100CA00000EB4000114601EB8000806904EB041169
:100CB00001EB410102EB8101096A401A04EB0411C6
:100CC00001EB410102EB8101886104EB041000EBB0
:100CD0004000114601EB80008069D7E0EEE00000A3
:100CE0005C080024D000002458595A5255565753D6
:100CF0000000000025633A2072617750444F3D2583
:100D00006C6420656E633D256C6420746172676558
:100D1000743D256C64206D6F64653D25640D0A008B
:100D20009400002425733A204641554C5421205309
:100D30007461747573576F72643D30782530347800
:100D4000204572726F72436F64653D307825303490
:100D5000780D0A0020202D3E206E6F206572726F84
:100D600072202872657475726E656420746F20300D
:100D7000206166746572207265736574290D0A00BE
:100D800020202D3E2047656E6572616C2065727271
:100D90006F720D0A0000000020202D3E204F766566
:100DA0007263757272656E740D0A000020202D3E0C
:100DB000204F766572766F6C746167650D0A00006E
:100DC00020202D3E20556E646572766F6C746167CD
:100DD000650D0A0020202D3E20456E636F6465720C
:100DE000204572726F720D0A0000000020202D3E17
:100DF00020456D657267656E63792053746F700D61
:100E00000A00000020202D3E204D6F746F72205389
:100E100074616C6C65640D0A0000000020202D3E9A
:100E200020466F6C6C6F77696E67204572726F72C7
:100E30000D0A000020202D3E20556E6B6E6F776EE0
:100E4000206661756C742C207365652053563636A8
:100E5000304E206D616E75616C0D0A0020202D3EB4
:100E60002053656E642027524553455427206F72E6
:100E70002027583A52455345542720746F20636CFD
:100E8000656172206661756C740D0A0004EB0411D3
:100E900001EB410102EB8101C96988420EDA04EBE2
:100EA000041000EB4000114601EB8000C06904EB28
:100EB000041101EB410102EB8101886104EB041094
:100EC00000EB4000FE4901EB8000C06804EB041118
:100ED00001EB4101FA4A02EB8101896904EB04123A
:100EE00002EB4202F64B03EB820292F9262001FB51
:100EF000020004EB041101EB41011A4602EB8101EF
:100F0000C860C5E204EB041000EB4000EC4901EBC3
:100F1000800090F8270090BB04EB041000EB400029
:100F200001EB800080690028EBDD04EB041000EB8E
:100F3000400001EB8000806904EB041101EB4101EA
:100F4000DF4A02EB8101096A401A04EB041101EB4C
:100F5000410102EB8101886104EB041000EB4000C9
:100F6000114601EB800080690028CADA002004EBFA
:100F7000041101EB410102EB8101886188E2FFE786
:100F800004EB041000EB4000CD4901EB800090F829
:100F9000270002287DD104EB041000EB400001EB98
:100FA000800090F9556004EB041101EB4101C44A43
:100FB00002EB810101F1340005F012FE074604EB5B
:100FC000041000EB4000BE4901EB8000C76004EB59
:100FD000041000EB400001EB8000C06C04EB041136
:100FE00001EB4101B64A02EB8101886104EB041078
:100FF00000EB4000114601EB800090F95580B8F1FC
:10100000080F7CD1082E7AD0002004EB041101EBEC
:10101000410102EB8101886104EB041101EB410104
:1010200002EB810181F88C0004EB041000EB40001E
:10103000114601EB80004069009004EB041000EBC6
:1010400040000D4605EB8000036904EB041000EB43
:10105000400005EB8000826C9A4850F824109AA05A
:1010600008F130FE04EB041101EB41012A4602EBCA
:1010700081010A6904EB041101EB41012B4603EBEA
:101080008101896C501A002800DA404204EB0411F7
:1010900000E07DE001EB4101894A02EB8101C96971
:1010A00081421DDB04EB041101EB410102EB8101E4
:1010B000096904EB041202EB4202814B03EB82024A
:1010C000D16004EB041101EB41011A4602EB8101EE
:1010D0000A6904EB041101EB410103EB81018A640D
:1010E00004EB041000EB4000754901EB8000D0F8E0
:1010F000B800E0B104EB041000EB400000E046E073
:1011000001EB8000D0F8B850002D01DB012001E098
:101110004FF0FF308146002D01DB284600E0684299
:1011200082464A4651462046FFF036FA2FE004EB4D
:10113000041000EB4000624901EB800090F82600AB
:1011400028B304EB041000EB400001EB800090F8A2
:10115000270002281BD104EB041101EB4101584A7E
:1011600002EB8101C869214600F02DFE0546002DE5
:101170000CDD04EB041000EB4000514901EB800052
:1011800090F9262029462046FFF006FA00BF7FE1AD
:1011900004EB041000EB4000494901EB800090F89B
:1011A000270003287ED104EB041000EB400001EB84
:1011B000800090F98D50002D03DB52480078854265
:1011C00012DB002004EB041101EB41013C4A02EB6D
:1011D000810181F8270004EB041101EB410102EBCE
:1011E000810181F88C0051E105EB051000EB400016
:1011F000334901EB8000806C059004EB041000EB98
:10120000400001EB8000D0F89C100598A0EB010A8B
:10121000BAF1000F01DA4FF0000A04EB041000EB02
:101220004000274901EB8000D0F89400002801DB42
:10123000012001E04FF0FF30834604EB041000EB87
:1012400040001F4901EB8000D0F89400002808DB23
:1012500004EB041000EB400001EB8000D0F8940098
:1012600009E004EB041000EB4000154901EB80009D
:10127000D0F894004042049004EB041000EB4000CE
:101280000F4901EB8000C06804EB041101EB410140
:101290000B4A02EB8101D1F89010401A00FB0BF8C9
:1012A000049800E0F3E08AFB006704EB041000EB15
:1012B0004000114601EB8000D0F89800C11723E0F0
:1012C0005C0800249400002420205B4442475D20F9
:1012D00025733A20444F4E45202073706C5F706F29
:1012E000733D256C642020636D645F746172676573
:1012F000743D256C64202061637475616C3D256CC0
:10130000640D0A001600002402220023CDE900012A
:10131000FEF076FE80197941CDE9020104EB04105C
:1013200000EB4000614901EB8000D0F89800C11744
:1013300002460B46CDE90001DDE90201FEF060FE48
:10134000814612E004EB041000EB4000574901EB2A
:101350008000C068584404EB041101EB4101534A7A
:1013600002EB8101C86008F10108C145EADC04EB29
:10137000041000EB40004D4901EB8000D0F89800CC
:10138000002824DD04EB041000EB400001EB80009A
:10139000D0F89800C117CDE9020105EB051000EB6C
:1013A0004000424901EB8000C16C049881FB0010B1
:1013B000CDE90010084601A90EC9FEF021FE04EB9C
:1013C000041101EB4101394A02EB8101886105EB0F
:1013D000051101EB4101354A02EB810101F13400B5
:1013E00005F03CFAE8B304EB041000EB40002F4991
:1013F00001EB8000C06804EB041101EB41012B4AB2
:1014000002EB81010969884224D004EB041101EB4D
:10141000410102EB8101096904EB041202EB420273
:10142000224B03EB8202D268881A012801D0411CAA
:1014300079B904EB041101EB41011C4A02EB810173
:10144000096904EB041202EB4202184B03EB82021F
:10145000D16000BF002004EB041101EB4101134AED
:1014600000E012E002EB8101886104EB041101EB62
:10147000410102EB810181F88C0004EB041101EBC6
:10148000410102EB810181F8270000BF00E000BFAD
:1014900004EB041000EB4000044A02EB8000C1683A
:1014A000204600F02BFC00BFFFF721BA5C080024A7
:1014B0002DE9FC41BB4903C9CDE90001002596E0B7
:1014C00000202BE0421CB84B1B689A4200DD24E050
:1014D00000EB001202EB4202B44B03EB82025268B3
:1014E000D2F8021000EB001202EB420253F8222065
:1014F000C2F802103DF8152000EB001303EB430384
:10150000AA4C54F823301A80082200EB001303EB96
:10151000430354F823309A7100BF401CA449097852
:101520008842CFDB192002F0D9FB07F0D7F84FF43F
:10153000FA6009F1ABFC192002F0F2FB1E2001F069
:1015400045FD4FF4FA6009F1A1FC012700242CE0CD
:1015500004EB041000EB4000944901EB800040686C
:10156000008804EB041101EB4101904A02EB810178
:10157000888404EB041000EB4000114601EB80006E
:10158000808C08B900270FE004EB041000EB40004A
:10159000864A02EB8000838C864850F824106A1C2F
:1015A00085A008F18FFB00BF641C8148007884424D
:1015B000CEDB1FB9691C89A008F184FB022D15D16F
:1015C000322001F003FD192002F088FB07F086F8B5
:1015D0004FF4FA6009F15AFC192002F0A1FB1E2019
:1015E00001F0F4FC4FF4FA6009F150FC6D1C032D7E
:1015F000FFF666AF01260024CBE004EB041000EBFD
:1016000040006A4901EB80004068008804EB041147
:1016100001EB4101654A02EB8101888404EB04106F
:1016200000EB4000114601EB800090F8240000F030
:101630006F00272855D1012004EB041101EB410173
:1016400002EB8101887204EB041000EB40001146AC
:1016500001EB80004068D0F8020004EB041101EBBC
:10166000410102EB8101486104EB041000EB4000F2
:10167000114601EB8000406904EB041101EB4101CC
:1016800002EB8101C86004EB041000EB400011463E
:1016900001EB8000406904EB041101EB410102EB16
:1016A0008101086104EB041000EB4000114601EBDE
:1016B0008000C06804EB041101EB410152F82110D5
:1016C000C1F8020004EB041000EB4000134603EBEA
:1016D0008000C268374850F824104DA008F1F2FA93
:1016E00056E0002604EB041000EB40002F4B03EB08
:1016F0008000828C2F4850F824104BA008F1E2FAA9
:10170000012004EB041101EB4101284A02EB8101A5
:10171000887204EB041000EB4000114601EB8000DE
:101720004068D0F8020004EB041101EB410102EB28
:101730008101486104EB041000EB4000114601EB0D
:101740008000406904EB041101EB410102EB8101CF
:10175000C86004EB041000EB4000114601EB800070
:10176000406904EB041101EB410102EB81010861C6
:1017700004EB041000EB4000114601EB8000C06850
:1017800004EB041101EB410152F82110C1F80200F1
:10179000641C074800788442FFF62FAF3046BDE84E
:1017A000FC81000084F71008280100245C08002454
:1017B00016000024940000242020257320737465F3
:1017C0007025643A20537461747573576F72643D69
:1017D0003078253034780D0A000000002020574171
:1017E000524E494E473A20736F6D6520617865739C
:1017F000206E6F7420726573706F6E64696E6720FF
:10180000617420737465702025640D0A0000000067
:1018100025733A20454E41424C45442028706F7351
:101820003D2564290D0A000025733A20656E61622A
:101830006C65204641494C4544205374617475736E
:10184000576F72643D3078253034782C20666F7283
:1018500063652D656E61626C696E670D0A0000003C
:1018600070B504460D4604EB041000EB40007D49C2
:1018700001EB8000058105EBC50000EB85107A497E
:1018800001EB8000006A04EB041101EB4101754A91
:1018900042F8210005EBC50000EB8510724901EB11
:1018A0008000C06A04EB041101EB410102EB8101ED
:1018B0004860002004EB041101EB410102EB8101BF
:1018C000887204EB041101EB410102EB8101886194
:1018D00004EB041101EB410102EB810181F82600C8
:1018E00004EB041101EB410102EB810181F82700B7
:1018F0005E4801682046FFF06DF9002004EB0411FA
:1019000001EB4101574A02EB8101C86004EB04116D
:1019100001EB410102EB8101086104EB041101EBD1
:10192000410102EB8101486104EB041101EB41012B
:1019300052F821100880082004EB041101EB41014A
:1019400052F821108871002004EB041101EB4101D1
:1019500002EB8101888404EB041101EB410102EBED
:10196000810181F8280004EB041101EB410102EB35
:10197000810181F82C0004EB041101EB410102EB21
:101980008101086304EB041101EB410102EB8101C9
:1019900081F8290004EB041101EB410102EB810104
:1019A00081F82B0004EB041101EB410102EB8101F2
:1019B00001F1340007F1A3FCFF2004EB041101EB5B
:1019C0004101284A02EB810181F88D00002004EBDF
:1019D000041101EB410102EB810181F88C0004212B
:1019E00001EB041188B204F0AFFB04EB041101EB2E
:1019F00041011C4A02EB8101C1F8A000052101EB65
:101A0000041188B204F0A0FB04EB041101EB4101C6
:101A1000144A02EB8101C1F8A400062101EB041174
:101A200088B204F091FB04EB041101EB41010D4A73
:101A300002EB8101C1F8A800002004EB041101EBC6
:101A4000410102EB8101C1F8AC00204601F008F829
:101A500004EB041101EB4101024A02EB8101C1F8E0
:101A6000BC0070BD5C080024D0350024B400002404
:101A700010B5014601EB011000EB40000F4B03EBEA
:101A80008000006901EB011303EB43030B4C04EBF3
:101A900083035B69C21A002A00DA5242052A0ADC73
:101AA00001EB011000EB4000044B03EB8000806968
:101AB00008B9012010BD0020FCE700005C080024EC
:101AC0002DE9F04104460E46002C03DB2048007847
:101AD000844202DB0020BDE8F081601C1D490968DA
:101AE000884201DD0020F6E704EB041000EB400023
:101AF000194901EB8000807A08B90020EBE704EB7C
:101B0000041000EB4000144901EB80004069851986
:101B1000032C16D0042101EB041188B204F014FB4D
:101B20000746052101EB041188B204F00DFB804645
:101B3000474505DDBD4200DD3D46454500DA4546E9
:101B400000BF29462046FEF7BFFD0120C3E7000085
:101B500016000024280100245C0800242DE9F0412F
:101B600004460E46002C03DB21480078844202DB49
:101B70000020BDE8F081601C1E490968884201DD33
:101B80000020F6E704EB041000EB40001A4901EBDB
:101B90008000807A08B90020EBE70B2101EB0411EB
:101BA00088B204F0D1FA0546002D03DC812004F050
:101BB000CBFA0546002D00DCC825002E01DB30469F
:101BC00000E07042074607B92F4640F6B83087421A
:101BD00000DD0746002E01DB012001E04FF0FF3061
:101BE0008046424639462046FEF0D6FC0120C0E73A
:101BF00016000024280100245C08002470B5044667
:101C00000D4608E02978207800F098F808B90020FF
:101C100070BD641C6D1C207810B128780028F1D1AB
:101C200020782978884201D10120F1E70020EFE7F0
:101C300010B5002037E0421C1D4B1B689A4200DDA6
:101C400030E000EB001202EB42021A4B03EB82027F
:101C50005268D2F8021000EB001202EB420203EBD2
:101C60008202516100EB001202EB420203EB82029E
:101C7000D16000EB001202EB420203EB8202116121
:101C800000EB001202EB420253F82220C2F80210CD
:101C9000082200EB001303EB4303064C54F82330F7
:101CA0009A7100BF401C044909788842C3DB10BD0B
:101CB000280100245C0800241600002400200C49A0
:101CC000087000BF0EE000EB001101EB4101094A72
:101CD00002EB810191F8281019B10121044A117019
:101CE0007047401C044909788842ECDB00BFF7E7E5
:101CF000BC0000245C08002416000024002808DB37
:101D00000A4A1278904204DA421C094B1B689A4234
:101D100000DD704700EB001202EB4202054B53F866
:101D20002220C2F8021000BFF3E7000016000024D2
:101D3000280100245C08002400BFFEE770B50546BA
:101D40000C46284600F00AF80646204600F006F841
:101D5000864201D1012070BD0020FCE701466129C7
:101D600005DB7A2903DCA1F12000C0B270470846E8
:101D7000FCE72DE9F0470546894615B90020BDE886
:101D8000F087484600F024FE0446002D01DD284679
:101D900000E068428246022200232046E117FEF05E
:101DA0002FF942F6E0628AFB0232C71851412246FF
:101DB000E3173846FEF024F90646002D01DD3046D3
:101DC000DDE77042DBE72DE9F0470546894615B9A6
:101DD0000020BDE8F087484600F042FE0446002D92
:101DE00001DD284600E068428246022200232046A8
:101DF000E117FEF005F942F6E0628AFB0232C718ED
:101E000051412246E3173846FEF0FAF80646002D07
:101E100001DD3046DDE77042DBE7000010B500F180
:101E200069FB00F103FC01200249087000F004F88E
:101E300010BD00004900002410B506F021FB01216F
:101E40001F2008F133FF4FF40041002008F156FF36
:101E500040F2E111042008F151FF4FF480510020BD
:101E600008F14CFF4FF4FA6000F02EFA00211F2019
:101E700008F11CFF4FF4FA6000F026FA08F120FF89
:101E800010BD000038B5002000906B4601221146BD
:101E90003B4802F10CFD04462CB13AA007F112FFB9
:101EA0006FF0040038BD6B4601221146344802F140
:101EB000FEFC04462CB133A007F104FF6FF00400D0
:101EC000F0E7009800F0040008B90120EAE76B464B
:101ED000002201212A4802F1EAFC044614B16FF005
:101EE0000400DFE7009800F48050B0F5805F1FD059
:101EF000009800F40050B0F5005F07D1009800F49E
:101F00008070B0F5807F01D10220CBE7009800F40B
:101F10000050B0F5005F01D10320C3E7009800F442
:101F20008070B0F5807F01D10420BBE70520B9E7C0
:101F30006B461F220121124802F1B9FC044614B17C
:101F40006FF00400AEE7009800F4805008B9062056
:101F5000A8E7009800F01C00182801D10220A1E792
:101F6000009800F01C00082801D103209AE700988F
:101F700000F01C00142801D1042093E7052091E70C
:101F8000300F002448414C5F4554485F52656164FE
:101F9000504859526567697374657220444D3931F0
:101FA00036315F425352204572726F720D0A000043
:101FB00010B5024801F176F910BD0000F81D0024AB
:101FC00010B5024801F16EF910BD0000701E00242A
:101FD0000146374A0868904249D0354A18320868A5
:101FE000904244D0324A3032086890423FD0304A62
:101FF0004832086890423AD02D4A603208689042D0
:1020000035D02B4A78320868904230D0284A903236
:10201000086890422BD0264AA8320868904226D001
:10202000244A0868904222D0224A18320868904216
:102030001DD0204A30320868904218D01D4A4832DC
:102040000868904213D01B4A6032086890420ED054
:10205000184A78320868904209D0164A90320868C7
:10206000904204D0134AA8320868904201D101205E
:1020700000E00020B0B10A78103A1823B2FBF3F068
:1020800000F007020C4B9A5CCA65032805D90A6860
:102090006FF30902121D8A6503E00A686FF30902F3
:1020A0008A6503E0086820F0FF008865886D704746
:1020B000100002401004024098D6000810B50268D3
:1020C0002B4C0368A34222D0294C14340368A3424A
:1020D0001DD0274C28340368A34218D0244C3C342C
:1020E0000368A34213D0224C50340368A3420ED09D
:1020F0001F4C64340368A34209D01D4C7834036834
:10210000A34204D01A4C8C340368A34201D10123AA
:1021100000E000238BB10378083B1424B3FBF4F1F7
:10212000144B03EB81030366124B8033436601F0CB
:102130001F040123A340836618E00378103B182492
:10214000B3FBF4F10C4B9A4204D80B4BA83B9A42D8
:1021500000D30831094B03EB81030366074B80333F
:10216000436601F01F040123A340836610BD0000F5
:102170000854025800580258B804024000080240AF
:102180000179A9B3082940D8204B02689A4222D08D
:102190001E4B143302689A421DD01C4B2833026830
:1021A0009A4218D0194B3C3302689A4213D0174B0D
:1021B000503302689A420ED0144B643302689A423C
:1021C00009D0124B783302689A4204D00F4B8C33FB
:1021D00002689A4201D1012200E000224AB14A1E5F
:1021E0000B4B03EB8202C266094A4032026708E0E9
:1021F0000BE04A1E074B03EB8202C266054A4032DF
:1022000002674A1E012393404367704708540258EF
:102210000059025800090240014600208A69D2B9DB
:102220008A6A32B1012A0DD0022A03D0032A10D1C2
:102230000EE000BFCA6A02F08072B2F1807F00D166
:10224000012007E0CA6AB2F1C07F00D1012001E09D
:1022500000E000BF36E08A69B2F5005F1BD18A6AF0
:1022600032B1012A07D0022A03D0032A11D10AE091
:1022700000BF01200EE0CA6A02F08072B2F1807FD6
:1022800000D1012006E0CA6AB2F1C07F00D101206E
:1022900000E000BF16E08A6A32B1012A05D0022AA6
:1022A00004D0032A0CD103E000BF00BF012008E0E6
:1022B000CA6A02F08072B2F1807F00D1012000E092
:1022C00000BF00BF7047704710B50446204600F0BD
:1022D0007DFE10BD10B5002210E002EB4204036940
:1022E00003EBC40100230B604B608B60CB600B6180
:1022F0004B6100F1440343F82210521C042AECD332
:10230000002444658465C465446604660324036848
:1023100003F58053C3F83041036803F58053046923
:10232000C3F81C4103694833046804F58054C4F8B9
:10233000283110BD10B5A2B0044601208DF833003D
:10234000002012908DF841008DF8430001208DF897
:1023500028008DF856008DF8320000208DF84C00D2
:1023600001208DF8840040030F9000208DF85C0060
:1023700018908DF885008DF886004FF4C360169094
:1023800000208DF830000B9001208DF835000020E2
:102390008DF836008DF840001D901B9014908DF83C
:1023A00064008DF87A0001208DF8420020202090F2
:1023B00001208DF8440000208DF855004FF040506A
:1023C00009904FF480400E9000208DF831000220DB
:1023D0001F9000208DF878008DF879008DF854005A
:1023E00001208DF8340000201A9001208DF8700033
:1023F00009A9204600F01EFA01208DF80400029081
:10240000002000908DF81C008DF80D008DF80C0058
:102410004FF40010069000208DF814004FF40010C7
:10242000049000208DF81D004FF406700890694656
:10243000204600F1B9FA22B010BD000070B5064682
:102440003068D0F8004224F4706403F157FC05466C
:102450001348854205D31348854202D244F40074E0
:102460001AE01048854205D30F48854202D244F451
:10247000407411E00C48854203D30C48854200D2D9
:102480000AE00A48854205D30948854202D244F44D
:10249000807401E044F480643068C0F8004270BD8C
:1024A000002D3101C00E16020087930300E1F505EF
:1024B00080D1F0082DE9F04F06460B46914606F113
:1024C00018042269D4F810C0002754F822109D681F
:1024D000BA46C86800F00040B0F1004F04D004F1E3
:1024E000140050F8220010B10220BDE8F08F1878D7
:1024F00000F00400C8B3C8686FF30F00D3F824B02D
:1025000040EA0B00C860C86840F48030C86030689A
:10251000006E40F48010D6F800B0CBF86000187858
:1025200000F0080008B3B3F82CB088686BF31F40C4
:102530008860C86840F40030C860C86820F4402053
:10254000D3F830B040EA0B00C8603068406E40F409
:102550008010D6F800B0CBF864003068006D40F011
:102560008060D6F800B0CBF85000187800F010006A
:1025700058B188686FF30D00D3F818B040EA0B002B
:102580008860C86840F08060C860187800F0040077
:1025900018B9187800F01000F0B1C86840F0804019
:1025A000C860C86840F00040C86000BF521C042AE0
:1025B00000D3121F00BF54F822107F1CC86800F01F
:1025C0000040B0F1004F07D154F82C10C86820F03B
:1025D0000040C860022088E77F1C2868086088687F
:1025E0006FF30D00D5F804B040EA0B008860A868CE
:1025F00068B1AD68286848608868DFF834B200EADE
:102600000B00B5F804B040EA0B40886007E00020FA
:1026100048608868DFF818B200EA0B008860187814
:1026200000F01000A0B1C86820F4F000B3F820B0AA
:1026300040EACB40C860C8686FF31100D3F81CB003
:1026400040EA0B00C860C86840F48020C8601FE002
:10265000C8686FF30E00D3F804B040EA0B00C860FE
:10266000187800F0010038B1C86820F44030D3F881
:1026700014B040EA0B00C860187800F0200038B1B0
:10268000C86820F04060D3F810B040EA0B00C86082
:10269000187800F0040038B1886820F44040D3F87E
:1026A00028B040EA0B008860C86840F00050C8605D
:1026B000C86820F08040C860C86840F00040C8602A
:1026C000187800F0020038B1C86820F06070D3F8C4
:1026D0000CB040EA0B00C86085E0C86820F080506C
:1026E000C86000BF521C042A00D3121F00BF54F858
:1026F0002210C86820F00050C860C86800F0004090
:10270000B0F1004F04D004F1140050F82200B8B129
:10271000624654F822104FF000080DE0C86820F01F
:102720000040C86000BF521C042A00D3121F00BF23
:1027300054F8221008F10108B845EFD30220D4E67E
:102740007F1CAD682868086088686FF30D00D5F8B5
:1027500004B040EA0B008860A86868B1AD682868DA
:1027600048608868DFF8C8B000EA0B00B5F804B02C
:1027700040EA0B40886007E0002048608868DFF886
:10278000B0B000EA0B008860187800F0100060B16B
:10279000C8686FF31100D3F81CB040EA0B00C860A2
:1027A000C86840F48020C86013E0C8686FF30E006A
:1027B000D3F804B040EA0B00C860187800F00100BC
:1027C00038B1C86820F44030D3F814B040EA0B00A8
:1027D000C8600AF1010AC86840F00040C860C868D3
:1027E00020F08040C860A86800287FF476AFB9F177
:1027F000000F04D0886840F00040886003E08868DB
:1028000020F000408860C86840F08050C86004F143
:102810001400D4F824B040F822B0226172B60AF154
:102820000100D4F828B05844A06262B600205CE6EB
:10283000FFFF00C010B50C688B6823430C7943EA96
:10284000C4630C7B43EAC4534C7B43EA84538C7BC4
:1028500043EA4453CC7B43EA04530C7C0CB9012477
:1028600000E0002443EAC4434C7C0CB9012400E09E
:10287000002443EA44438C7C43EA04434C692343E9
:102880008C6923430C7F43EA04334C7F43EAC4231F
:102890008C7F0CB9012400E0002443EA8423CC7F20
:1028A00043EA442391F820400CB9012400E00024BD
:1028B00043EA042351F8244F23430C7943EA0413D9
:1028C0008C6843EA040203681B683D4C23401343B1
:1028D000046823600B7E5B060C7D43EA04630C7B7B
:1028E00043EA84434C7B43EA44438C7B24390CB950
:1028F000012400E0002443EA04434C6B43EA040251
:1029000003685B682F4C234013430468636091F8AD
:1029100040404B6C43EA04220368DB6840F20F142A
:10292000A34313430468E36091F854400B6D43EAFA
:10293000440391F84C400CB9012400E0002443EA20
:10294000C41331F8484F43EA044203681B6F4FF643
:102950000D7423401343046823678B7B4C7B43EA4D
:1029600044020368D3F8903023F003031343046850
:10297000C4F890300368D3F8003D23F072030C696B
:1029800023430468C4F8003D0C7E4B6948390CB9F8
:10299000012400E0002443EA841391F8614043EAF3
:1029A000041391F8624043EAC4020368D3F8303D4F
:1029B00023F07B0313430468C4F8303D10BD0000CE
:1029C000838004000080F8C072B600BFFEE70000FC
:1029D0000146002901DB082902DB4CF25030704728
:1029E00019B1012901D0022902D14CF25030F6E789
:1029F00001EB011000EB4000064A02EB800090F86A
:102A0000C800012802D148F6A040E8E74CF2503057
:102A1000E5E700005C0800240146002901DB0829E5
:102A200002DB4CF25030704719B1012901D0022964
:102A300002D14CF25030F6E701EB011000EB400000
:102A4000064A02EB800090F8C800012802D148F63F
:102A5000A040E8E74CF25030E5E700005C080024B5
:102A60000146002901DB082902DB4CF25030704797
:102A700019B1012901D0022902D14CF25030F6E7F8
:102A800001EB011000EB4000064A02EB800090F8D9
:102A9000C800012802D148F6A040E8E74CF25030C7
:102AA000E5E700005C0800240146002901DB082955
:102AB00002DB4CF25030704719B1012901D00229D4
:102AC00002D14CF25030F6E701EB011000EB400070
:102AD000064A02EB800090F8C800012802D148F6AF
:102AE000A040E8E74CF25030E5E700005C08002425
:102AF0002DE9F041044601F017F8804614B9012091
:102B0000BDE8F08194F83500022808D08020606587
:102B100000BF002084F8340000BF0120F0E7FE4928
:102B20002068884249D0FC4918312068884244D046
:102B3000F9493031206888423FD0F7494831206850
:102B400088423AD0F44960312068884235D0F24951
:102B500078312068884230D0EF499031206888422F
:102B60002BD0ED49A8312068884226D0EB49206857
:102B7000884222D0E9491831206888421DD0E749AF
:102B800030312068884218D0E449483120688842B2
:102B900013D0E2496031206888420ED0DF49783195
:102BA0002068884209D0DD4990312068884204D0ED
:102BB000DA49A8312068884201D1012000E00020D4
:102BC00068B12068006820F01E0021680860206855
:102BD000406920F0800021684861256806E020688F
:102BE000006820F00E00216808602568CA49206846
:102BF000884270D0C8491831206888426BD0C649D5
:102C000030312068884266D0C34948312068884204
:102C100061D0C1496031206888425CD0BE497831BA
:102C20002068884257D0BC4990312068884252D0F1
:102C3000B949A831206888424DD0B84920688842F7
:102C400049D0B64918312068884244D0B349303160
:102C5000206888423FD0B1494831206888423AD044
:102C6000AE4960312068884235D0AC49783120685F
:102C7000884230D0A9499031206888422BD0A7499A
:102C8000A8312068884226D0A5492068884222D0F1
:102C9000A3491431206888421DD0A14928312068F9
:102CA000884218D09E493C312068884213D09C4904
:102CB0005031206888420ED099496431206888429A
:102CC00009D0974978312068884204D094498C31E2
:102CD0002068884201D1012000E0002028B1206E48
:102CE000006820F48070216E08608B49206888425B
:102CF00049D0894918312068884244D0864930310A
:102D0000206888423FD084494831206888423AD0C0
:102D1000814960312068884235D07F497831206808
:102D2000884230D07C499031206888422BD07A4943
:102D3000A8312068884226D078492068884222D06D
:102D400076491831206888421DD074493031206896
:102D5000884218D0714948312068884213D06F49A1
:102D60006031206888420ED06C49783120688842F2
:102D700009D06A4990312068884204D06749A83157
:102D80002068884206D12068006820F00100216890
:102D9000086005E02068006820F0010021680860F4
:102DA00011E000F0C1FEA0EB080005280BD920209F
:102DB000606500BF002084F8340000BF032084F861
:102DC000350001209CE6286800F001000028E8D1C9
:102DD00051492068884249D04F49183120688842BB
:102DE00044D04D493031206888423FD04A4948316B
:102DF000206888423AD0484960312068884235D0FE
:102E0000454978312068884230D043499031206864
:102E100088422BD04049A8312068884226D03F49BB
:102E20002068884222D03D491831206888421DD050
:102E30003A4930312068884218D0384948312068F2
:102E4000884213D035496031206888420ED033491A
:102E500078312068884209D0304990312068884212
:102E600004D02E49A8312068884201D1012000E019
:102E7000002040B1A66D94F85C0000F01F013F20D7
:102E80008840B06007E0A76D94F85C0000F01F0177
:102E900001208840786020492068884276D01E4909
:102EA00018312068884271D01B493031206888422F
:102EB0006CD0194948312068884267D01649603182
:102EC0002068884262D014497831206888425DD0F9
:102ED000114990312068884258D00F49A8312068A4
:102EE000884253D00D49206888424FD00B49183191
:102EF000206888424AD0094930312068884245D04C
:102F0000064948312068884240D004496031206831
:102F100088423BD0014905E0100002401004024005
:102F2000085402587831206888422FD025492068FB
:102F300088422BD0234918312068884226D0224964
:102F40002068884222D020491431206888421DD050
:102F50001D4928312068884218D01B493C3120681F
:102F6000884213D018495031206888420ED0164943
:102F700064312068884209D013497831206888423A
:102F800004D011498C312068884201D1012000E031
:102F9000002068B1D4E919104860E06E40B1E06EDD
:102FA000006820F48070E16E0860D4E91C1048606D
:102FB00000BF002084F8340000BF012084F83500F1
:102FC00000209DE5A00402400854025870B5044654
:102FD00000F0AAFD06462546681C10B1044800789A
:102FE000054400BF00F0A0FD801BA842FAD370BDCD
:102FF00040000024F0B5044604F14402536952F83D
:1030000023109669906908B90120F0BDD06900B11C
:10301000761C002522E0086908604FF08070C860C7
:10302000486928B148698860C86840F00070C86085
:10303000C86840F00040C860106A18B1C86840F025
:103040008040C860701EA84207D900BF5B1C042BDB
:1030500000D31B1F00BF52F823106D1CB542DAD3FA
:10306000206800F58050C0F82811002090610027EA
:10307000276600BFC9E7024609B9012070471068FA
:10308000006800F00C00C86210680068C0F300100F
:1030900081F828001068006800F06000486210683D
:1030A0000068C0F3002080F0010081F82000106863
:1030B0000068C0F34020C87710680068C0F3802023
:1030C00080F00100887710680068C0F3C02048775E
:1030D00010680068C0F3003008771068006800F4DA
:1030E000005088611068006800F4804048611068F2
:1030F0000068C0F30040887410680068C0F3404066
:1031000080F00100487410680068C0F3C04080F08F
:103110000100087410680068C0F30050C87310689C
:103120000068C0F34050887310680068C0F3805096
:10313000487310680068C0F3C050087310680068D6
:1031400000F0E060886010680068C0F3C06008713B
:103150001068006800F0E040086010684068C0F344
:103160000D00486310684068C0F3004080F0010023
:1031700081F8320010684068C0F3404081F83100A7
:1031800010684068C0F3804081F8300010684068E3
:10319000C0F3006081F8380010684068C0F34460F4
:1031A000C8631068C068C0F3002081F84000106850
:1031B000C06800F00F0048641068006FC0F3400062
:1031C00081F854001068006FC0F3C01080F0010057
:1031D00081F84C001068006F00F0700008651068FE
:1031E000006F000C88641068D0F8900000F00100B7
:1031F00081F856001068D0F89000C0F3400081F8C4
:1032000055001068D0F8000D00F072008865106855
:10321000D0F8300D00F02300C8651068D0F8300DEC
:10322000C0F3C00081F862001068D0F8300DC0F320
:10323000001081F861001068D0F8300DC0F38010E4
:1032400080F0010081F86000002017E7024609B90C
:10325000012070471068806800F001000870106855
:103260008068C0F34000C87010688068C0F38000B8
:10327000087110688068C0F3C00008721068806828
:10328000C0F30010487110688068C0F3401080F0EF
:10329000010048721068806800F0C000C8601068C3
:1032A0008068C0F30020C87110688068C0F34020B7
:1032B000887110688068C0F380208870106880680A
:1032C000C00F48700020C4E72DE9F04180460E464B
:1032D00008F144046569A06930B9404601F15EFA1D
:1032E00010B90120BDE8F08100BFA069401E05446F
:1032F000042D00D32D1F00BF54F82570F868C0F3CB
:103300000E0030600020EDE738B504460CB901200E
:1033100038BDE06E10B9204600F09EF82320E0662C
:1033200000BF4B48006840F0020049490860084669
:10333000006800F00200009000BF00BF207A18B9BA
:10334000002001F047F903E04FF4000001F042F9DA
:10335000206800F58050006840F00101206800F509
:103360008050016000F0E0FB05460BE000F0DCFB64
:10337000401BB0F5FA7F05D904206067E020E066C5
:103380000120C5E7206800F58050006800F00100CA
:103390000028EBD12046FFF751F802F1AFFC2D4990
:1033A000B0FBF1F0401E2168C1F8DC002046FEF7BA
:1033B000C1FF206800F58050D0F8000120F4E01033
:1033C00040F40021206800F58050C0F80011207DF5
:1033D00000F0030028B101206067E020E0660120D2
:1033E00096E7206800F58050D0F8080147F6FE7196
:1033F0008843616940EA4101206800F58050C0F8C7
:1034000008112046FFF0A6FA2046FEF763FF606829
:1034100000796168497940EA01202168C1F8000318
:103420006068C07800066168897840EA0140616898
:10343000497840EA01206168097808432168C1F8A9
:103440000403002060671020E066206700205FE72B
:10345000F444025840420F0010B586B004461421CF
:1034600001A8FCF005FE4949206888427ED100BFD2
:103470004748006840F40040454908600846006835
:1034800000F40040009000BF00BF00BF0846006885
:1034900040F4803008600846006800F480300090F6
:1034A00000BF00BF00BF0846006840F4003008605D
:1034B0000846006800F40030009000BF00BF00BF65
:1034C00033480830006840F0010031490831086095
:1034D0000846006800F00100009000BF00BF00BF78
:1034E0000846006840F0020008600846006800F0E6
:1034F0000200009000BF00BF00BF0846006840F017
:10350000040008600846006800F00400009000BF56
:1035100000BF00BF0846006840F040000860084651
:10352000006800F04000009000BF00BF4FF4D040A2
:1035300001900220029000200390022004900B20B2
:10354000059001A9134801F1B7FB32200190022038
:10355000029000200390022004900B20059001A906
:103560000D4801F1A9FB8620019000E00BE002204C
:10357000029000200390022004900B20059001A9E6
:10358000064801F199FB06B010BD00000080024022
:10359000D844025800180258000802580000025887
:1035A00070B504460D460DB9012070BD206F10287E
:1035B00005D129462046FFF73DF90020F5E7012017
:1035C000F3E7000010B5024609B9012010BD0878E4
:1035D000CC7840EA44000C7940EA84000C7A40EA56
:1035E000C4004C7940EA04104C7A0CB9012400E084
:1035F000002440EA4410CC7940EA04208C7940EA67
:1036000044208C7840EA84204C7840EAC470CC682E
:1036100040EA040310688068034C20401843146893
:10362000A0600020D2E7000000F8FF7F70B50646DA
:103630003068D0F8004224F4706402F15FFB054664
:103640001348854205D31348854202D244F40074DE
:103650001AE01048854205D30F48854202D244F44F
:10366000407411E00C48854203D30C48854200D2D7
:103670000AE00A48854205D30948854202D244F44B
:10368000807401E044F480643068C0F8004270BD8A
:10369000002D3101C00E16020087930300E1F505ED
:1036A00080D1F0082DE9F04705460F46904699462F
:1036B0002868D0F8000200F0010010B10120BDE838
:1036C000F0872868D0F8004224F0787040EA475428
:1036D00024F4F81040EA084424F00C00041D44F0DF
:1036E00001041FFA89F00D4908600D48C0F8004236
:1036F00000F01AFA064607E000F016FA801BB0F553
:103700007A7F01D90120DAE72868D0F8000200F0BA
:1037100001000028F0D100BFD1E700000482024080
:10372000008002400348006840F001000149086041
:10373000704700002004005830B5034693F89840C5
:10374000012C01D0022C3ED11868806D084030B9A0
:103750001868C06D40F001001D68E8650EE018684B
:10376000806D0840884206D11868C06D40F00200A4
:103770001D68E86502E003201D68E86501F400703B
:1037800030B11868D0F8E00010431D68C5F8E000BB
:1037900001F4806030B11868D0F8E40010431D686F
:1037A000C5F8E40000BF1868406D0B4D0D4028437C
:1037B0001D6868650948006840EA9170074D2860F7
:1037C00000BF002030BDD3F89C0040F00200C3F8D9
:1037D0009C000120F6E70000FFFFCF3F14A8004047
:1037E00070B594B004464C22B34901A8FCF701FE21
:1037F00014B9012014B070BDB0492068884203D1CB
:10380000206800F580706060A068B0F5407F00D14E
:1038100000BF206C00B100BFA06C00B100BF206DE4
:1038200000B100BF206E00B100BFD4E917100844FA
:1038300000B100BF94F8980028B9002084F89900DE
:10384000204601F1A9F92068806920F01000216864
:10385000886100F069F905460EE000F065F9401B4B
:103860000A2809D99834606840F00100606003209C
:1038700004F898090120BDE72068806900F008007D
:103880000828EAD02068806940F00100216888613A
:1038900000F04AF905460EE000F046F9401B0A2800
:1038A00009D99834606840F001006060032004F892
:1038B000980901209EE72068806900F00100002837
:1038C000EAD02068806940F0020021688861207C8D
:1038D000012806D12068806920F0400021688861B5
:1038E00005E02068806940F0400021688861607CC4
:1038F000012806D12068806940F4804021688861F1
:1039000005E02068806920F4804021688861A07CFF
:10391000012806D12068806920F4805021688861E0
:1039200005E02068806940F4805021688861206843
:10393000806920F44070A16808432168886120688C
:10394000806920F0A400216888612068006920F067
:10395000100021680861E068012806D120688069AC
:1039600040F004002168886120E0E068F0B1E06880
:10397000022815D02068806940F0800021688861A5
:103980002068006940F0100021680861E0680328A1
:103990000CD12068806940F020002168886105E032
:1039A0002068806940F0200021688861207E401EE8
:1039B0004106E069401E41EA0020216A491E084391
:1039C000A18A491E40EA01402168C861A068B0F59B
:1039D000407F0FD1A06A401EE16A491E40EA0121E2
:1039E000206B401E41EA0011A08C401E41EA0040BD
:1039F0002168C860206E38B12068D0F8C000616EC0
:103A000008432168C1F8C000D4E91710084460B128
:103A10002068D0F8C80020F0070001AAA16E52F873
:103A2000211008432168C1F8C800206C60B12068EB
:103A3000D0F8BC0020F0070001AA616C52F82110F8
:103A400008432168C1F8BC00A06C68B12068D0F8B8
:103A5000BC0020F0700101AAE06C52F8200041EA9D
:103A600000102168C1F8BC00206D68B12068D0F852
:103A7000BC0020F4E06101AA606D52F8200041EA28
:103A800000202168C1F8BC000C492068884205D19B
:103A90006068806820F0030061688860002044F856
:103AA000940FA06001202071943C2046FFF02EF876
:103AB000064630469EE6000010F7100800A00040C1
:103AC0000549096841F48071034A1160114609688B
:103AD00021F480711160704794440258014691F8B6
:103AE000980001280CD1022081F8980008688069AC
:103AF00020F001000A6890610020C1F89C00704726
:103B0000D1F89C0040F00400C1F89C000120F6E7C9
:103B10000AB1816101E00B048361704701480068CC
:103B2000000C70470010005C0148006870470000FE
:103B30003800002403480068034909780844014913
:103B400008607047380000244000002410B50320AE
:103B500001F1E4F900F026FC10490968C1F30321E2
:103B60000F4A515C01F01F0120FA01F40B48006874
:103B700000F00F001146085C00F01F0024FA00F06E
:103B800008490860084804600F2000F00FF808B1E9
:103B9000012010BD00F090F80020FAE71844025808
:103BA000D8F610080400002400000024F0B58BB003
:103BB0000446102C0AD200222146372000F0C4F817
:103BC000372000F0ADF81C48046002E001200BB083
:103BD000F0BD00BF1948006840F020001749086098
:103BE0000846006800F02000019000BF00BF02A955
:103BF00003A800F08FFB089E1EB902F1A5F8054648
:103C000002E002F1A1F845000D48B5FBF0F0471EB7
:103C10000C480D49086040F2E7310B48C16047602D
:103C200000210161816002F1CCFC18B9064802F163
:103C30004BFDCCE70120CAE73C000024E8440258D1
:103C400040420F00001400402C11002400BF00BFB0
:103C500000BFBFF35F8F00BF00BF00BF0548006813
:103C600020F4803003490860002002497031086068
:103C70007047000024ED00E040F001010D4A1160A2
:103C80000C497039096841F480310A4A703A116070
:103C900000BF00BF00BFBFF34F8F00BF00BF00BF1A
:103CA00000BF00BF00BFBFF36F8F00BF00BF00BFEA
:103CB0007047000094ED00E008B500BF06480068BA
:103CC00040F00200044908600846006800F0020065
:103CD000009000BF00BF08BDF444025810B5014673
:103CE0000846002817DB00F01F0301229A400B4B07
:103CF000440943F8242000BF00BF00BFBFF34F8F2B
:103D000000BF00BF00BF00BF00BF00BFBFF36F8F89
:103D100000BF00BF00BF00BF10BD000080E100E099
:103D20000146084600280DDB00BF00BF00F01F035E
:103D300001229A4043099B0003F1E023C3F80021CC
:103D400000BF00BF00BF70472DE9F05F80460D4601
:103D5000164605F1C7FF074639462A46334601F0A5
:103D60000700C0F1070ABAF1040F02D94FF0040AA4
:103D700001E0C0F1070AD14600F1040ABAF1070FC9
:103D800002D24FF0000A01E0A0F1030AD4464FF03E
:103D9000010A0AFA09FAAAF1010A0AEA020A0AFA67
:103DA0000CFA4FF0010B0BFA0CFBABF1010B0BEA19
:103DB000030B4AEA0B042146404603F06BFFBDE8C3
:103DC000F09F000070B50146844D2D6805F0030397
:103DD000824D2D68C5F30530804D2D1D2D68C5F32E
:103DE00000147E4D14352D68C5F3CC0515FB04F584
:103DF00001EE105AB8EE411AF0EE410A00286FD0D9
:103E000023B1012B4ED0022B6BD16BE0734D283DBB
:103E10002D68C5F340153DB3704D283D2D68C5F3A1
:103E2000C1066F4D25FA06F201EE102AF8EE411A8E
:103E300001EE100AB8EE411A81EE812A9FED691A4F
:103E4000C0EE811A654D10352D68C5F3080501EEE9
:103E5000105AB8EE411A31EE811AF7EE001A31EE1F
:103E6000211A22EE010A1CE001EE100AB8EE411AF6
:103E7000DFED5D1A81EE812A9FED5A1AC0EE811A9C
:103E8000564D10352D68C5F3080501EE105AB8EEF1
:103E9000411A31EE811AF7EE001A31EE211A22EEA4
:103EA000010A5BE001EE100AB8EE411ADFED4F1A8D
:103EB00081EE812A9FED4B1AC0EE811A474D1035D5
:103EC0002D68C5F3080501EE105AB8EE411A31EE1F
:103ED000811AF7EE001A31EE211A22EE010A3DE0B6
:103EE00077E01DE001EE100AB8EE411A9FED402A7E
:103EF000C2EE011A9FED3B1A80EE812A374D103534
:103F00002D68C5F3080501EE105AB8EE411A32EEDD
:103F1000011AB7EE002A31EE021A21EE810A1DE0E5
:103F200001EE100AB8EE411ADFED301A81EE812A57
:103F30009FED2C1AC0EE811A284D10352D68C5F35F
:103F4000080501EE105AB8EE411A31EE811AF7EE6B
:103F5000001A31EE211A22EE010A00BF00BF1F4DE8
:103F600010352D68C5F3462501EE105AB8EE411AFA
:103F7000F7EE001A31EE211AC0EE011ABCEEE11A7A
:103F800081ED001A154D10352D68C5F3064501EE7B
:103F9000105AB8EE411AF7EE001A31EE211AC0EEAF
:103FA000011ABCEEE11A81ED011A0C4D10352D6895
:103FB000C5F3066501EE105AB8EE411AF7EE001A85
:103FC00031EE211AC0EE011ABCEEE11A81ED021A9F
:103FD00003E000250D604D608D6070BD28440258DF
:103FE0000090D003000000460024744C0024744A62
:103FF00020BCBE4B2DE9F04104460D4614B901200A
:10400000BDE8F081BD48006800F00F00A8420ED264
:10401000BA48006820F00F002843B84908600846F5
:10402000006800F00F00A84201D00120E8E72078E6
:1040300000F0040004280ED1B1492069096801F09C
:104040007001884207D9AE48006820F070002169ED
:104050000843AB490860207800F00800082811D117
:10406000A749091D6069096801F07001884209D9F2
:10407000A348001D006820F0700061690843A04952
:10408000091D0860207800F01000102811D19C490B
:10409000091DA069096801F4E061884209D99848BE
:1040A000001D006820F4E060A16908439449091DDF
:1040B0000860207800F02000202811D190490831B4
:1040C000E069096801F07001884209D98C4808301C
:1040D000006820F07000E1690843894908310860F0
:1040E000207800F0020002280ED18549E0680968B6
:1040F00001F00F01884207D98148006820F00F00C5
:10410000E16808437E490860207800F0010000283B
:1041100050D07B48006820F47060A168084378495B
:1041200008606068022807D1754818380068C0F335
:104130004040F8B9012063E76068032807D1704860
:1041400018380068C0F34060A0B9012058E76068E3
:10415000012807D16A4818380068C0F3002048B920
:1041600001204DE7664818380068C0F3800008B9A0
:10417000012045E762480838006820F007006168C0
:1041800008435F4908390860FFF7CEFC064608E09F
:10419000FFF7CAFC801B41F28831884201D9032015
:1041A0002EE757480838006800F038006168B0EB27
:1041B000C10FEDD1207800F0020002280ED1504945
:1041C000E068096801F00F01884207D24C48006896
:1041D00020F00F00E168084349490860474800683B
:1041E00000F00F00A8420ED94448006820F00F00EC
:1041F0002843424908600846006800F00F00A842C2
:1042000001D00120FCE6207800F0040004280ED143
:104210003B492069096801F07001884207D238489B
:10422000006820F070002169084335490860207853
:1042300000F00800082811D13149091D606909689A
:1042400001F07001884209D22D48001D006820F05D
:104250007000616908432A49091D0860207800F050
:104260001000102811D12649091DA069096801F420
:10427000E061884209D22248001D006820F4E06015
:10428000A16908431E49091D0860207800F020003C
:10429000202811D11A490831E069096801F070013C
:1042A000884209D216480830006820F07000E169A1
:1042B000084313490831086000F074F81049096890
:1042C000C1F303210F4A515C01F01F0120FA01F7ED
:1042D0000B48006800F00F001146085C00F01F005A
:1042E00027FA00F008490860084807600848006895
:1042F000FFF75CFC8046404682E60000002000524A
:1043000018440258D8F610080400002400000024C5
:104310003C0000243F220260174A126802F00702A4
:104320004260154A0832126802F470628260124AD2
:104330000832126802F00F02C2600F4A0832126897
:1043400002F0700202610C4A0C32126802F0700234
:104350004261094A0C32126802F4E0628261064A44
:104360001032126802F07002C261044A126802F050
:104370000F020A60704700001044025800200052EB
:1043800000B501F1BBFC05490968C1F30221044AEB
:10439000515C01F01F01C84000BD00001C440258E0
:1043A000D8F61008F0B5824E366806F0380636B1F9
:1043B000082E15D0102E15D0182E7DD114E07C4E6D
:1043C000103E3668C6F3401646B1794E103E366848
:1043D000C6F3C107774E26FA07F000E07548E5E01E
:1043E0007548E3E07548E1E0714E1836366806F02E
:1043F00003046F4E18363668C6F305116C4E1C3632
:10440000366806F001056A4E24363668C6F3CC06D7
:1044100016FB05F601EE106AB8EE410A002971D0CC
:1044200024B1012C50D0022C6DD16DE0604E103EB5
:104430003668C6F340163EB35D4E103E3668C6F38E
:10444000C1075C4E26FA07F301EE103AF8EE411A66
:1044500001EE101AB8EE411A81EE812A9FED581A2A
:10446000C0EE011A524E20363668C6F3080601EE39
:10447000106AB8EE411A31EE811AF7EE001A31EEE9
:10448000211A62EE010A1EE001EE101AB8EE411A7E
:10449000DFED4C1A81EE812A9FED491AC0EE011A18
:1044A000434E20363668C6F3080601EE106AB8EEB1
:1044B000411A31EE811A00E076E0F7EE001A31EE93
:1044C000211A62EE010A5BE001EE101AB8EE411A01
:1044D0009FED3D2AC2EE011A9FED391A80EE012AA6
:1044E000334E20363668C6F3080601EE106AB8EE81
:1044F000411A32EE011AB7EE002A31EE021A61EECD
:10450000810A3DE04EE01DE001EE101AB8EE411ABE
:10451000DFED2E1A81EE812A9FED291AC0EE011AD5
:10452000234E20363668C6F3080601EE106AB8EE50
:10453000411A31EE811AF7EE001A31EE211A62EEBD
:10454000010A1DE001EE101AB8EE411A9FED1E2A75
:10455000C2EE011A9FED1A1A80EE012A144E20367F
:104560003668C6F3080601EE106AB8EE411A32EE5C
:10457000011AB7EE002A31EE021A61EE810A00BF7D
:1045800000BF0B4E20363668C6F34626721C01EE7D
:10459000102AB8EE411AC0EE811ABCEEE11A11EEF3
:1045A000100A00E0002001E0034800BF00BFF0BD9A
:1045B000104402580090D00300093D0040787D016E
:1045C000000000460024744C0024744A20BCBE4BFA
:1045D000704700000349096821F460010143014A62
:1045E00011607047040400587047704730B50246A8
:1045F0000B4600BF92F83C00012801D1022030BDDB
:10460000012082F83C0000BF022082F83D001068C3
:104610004168106884681F4D1068A84203D01E4D81
:104620001068A84203D121F470015868014321F0B9
:1046300070011868014310684160164D1068A84267
:1046400017D01068B0F1804F13D0144D1068A842F5
:104650000FD0134D1068A8420BD0124D1068A8421D
:1046600007D00D4D1068A84203D00F4D1068A84226
:1046700005D124F080049868044310688460012008
:1046800082F83D0000BF002082F83C0000BF00BF60
:10469000B5E70000000001400004014000040040B4
:1046A00000080040000C004000180040704710B5A2
:1046B000044620680069C0F34000D8B12068C06893
:1046C000C0F34000B0B16FF0020021680861012022
:1046D00020772068806900F0030018B12046FFF7BA
:1046E000E5FF05E0204602F1DBF8204600F0BBF8CC
:1046F0000020207720680069C0F38000D8B12068CE
:10470000C068C0F38000B0B16FF004002168086198
:10471000022020772068806900F4407018B120469C
:10472000FFF7C4FF05E0204602F1BAF8204600F08A
:104730009AF80020207720680069C0F3C000D8B143
:104740002068C068C0F3C000B0B16FF008002168F5
:104750000861042020772068C06900F0030018B1C8
:104760002046FFF7A3FF05E0204602F199F8204616
:1047700000F079F80020207720680069C0F300106D
:10478000D8B12068C068C0F30010B0B16FF010005D
:1047900021680861082020772068C06900F4407013
:1047A00018B12046FFF782FF05E0204602F178F8B5
:1047B000204600F058F8002020772068006900F0BB
:1047C000010058B12068C06800F0010030B16FF0FE
:1047D000010021680861204600F046F82068006961
:1047E000C0F3C01058B12068C068C0F3C01030B129
:1047F0006FF0800021680861204601F1E1FE206829
:104800000069C0F3002058B12068C068C0F3C01030
:1048100030B16FF48070216808612046FFF7E4FE34
:1048200020680069C0F3801058B12068C068C0F3E8
:10483000801030B16FF0400021680861204602F11D
:1048400030F820680069C0F3401058B12068C06893
:10485000C0F3401030B16FF020002168086120469D
:10486000FFF7C3FE10BD704738B5044615492068F0
:10487000096888421FD114480068012819D1002016
:10488000009003F02BFF1148006888B16A460021B0
:104890000E4800680AF10EFD00BF009838B14FF0D5
:1048A00080500B490860BFF34F8FBFF36F8F00BF7D
:1048B00001E003F013FF07492068884201D1FFF7A8
:1048C00039F938BDB80F0024100000240800002476
:1048D00004ED00E00014004070B505460C461E488B
:1048E000854232D1002C30DD1C4804F11F0222F039
:1048F0001F01002923DD00F01F067218034600BFC8
:1049000000BF00BFBFF34F8F00BF00BF00BF00BF9D
:10491000134E33602033203A002AF9DC00BF00BF79
:1049200000BFBFF34F8F00BF00BF00BF00BF00BF7D
:1049300000BFBFF36F8F00BF00BF00BF00BF00BF4D
:10494000084804800120084908704FF48272034926
:10495000014801F1A7FF70BD681D0024E81E002476
:104960005CEF00E054000024560000247047000073
:1049700010B50446084884420CD10020074908803D
:1049800007490870074908604FF4827206490248D7
:1049900001F188FF10BD0000681D002454000024B0
:1049A0005700002458000024E81E00242DE9F04799
:1049B00004462068C569206806682068876840F654
:1049C0000F0005EA0009B9F1000F0FD105F0200032
:1049D00060B106F0200010B907F0805030B1206FB0
:1049E00010B12046216F8847BDE8F087B9F1000F6C
:1049F0007ED0DE48384018B9DD4830400028F7D076
:104A000005F0010058B106F4807040B10120216822
:104A10000862D4F88C0040F00100C4F88C0005F066
:104A2000020058B107F0010040B10220216808627D
:104A3000D4F88C0040F00400C4F88C0005F00400A9
:104A400058B107F0010040B1042021680862D4F891
:104A50008C0040F00200C4F88C0005F0080070B132
:104A600006F0200010B9C148384040B10820216844
:104A70000862D4F88C0040F00800C4F88C0005F4FB
:104A8000006060B106F0806048B14FF400602168BA
:104A90000862D4F88C0040F02000C4F88C00D4F8F0
:104AA0008C00002844D005F0200050B106F0200012
:104AB00010B907F0805020B1206F10B12046216F4F
:104AC0008847D4F88CA02068806800F04000402817
:104AD00002D00AF0280028B3204605F175F82068B6
:104AE000806800F04000402818D12068806800E00D
:104AF0001FE020F0400021688860E06F50B19D48C1
:104B0000E16F0865E06FFEF001FA88B1E06F016DBA
:104B100088470DE02046FFF72BFF09E02046FFF70E
:104B200027FF05E02046FFF723FF0020C4F88C0094
:104B30005AE7E06E012872D105F0100000286ED00F
:104B400006F010000028FAD01020216808622068C2
:104B5000806800F0400040287ED1E06F0068864900
:104B6000884258D0E06F006883491831884252D09B
:104B7000E06F00688049303188424CD0E06F0068B7
:104B80007D494831884246D0E06F00687A496031FB
:104B9000884240D0E06F00687749783188423AD047
:104BA000E06F006874499031884234D0E06F00684B
:104BB0007149A83188422ED0E06F00686F49884261
:104BC00029D0E06F00686D491831884223D0E06F2A
:104BD00000686A49303188421DD0E06F006867493B
:104BE0004831884217D0E06F0068644960318842DC
:104BF00011D0E06F00686149783188420BD0E06FD6
:104C000000685E499031884205D0E06F00685B49DA
:104C1000A831884204D1E06F0068406803E068E092
:104C2000E06F006840681FFA80F8B8F1000F35D0D7
:104C3000B4F85C00404531DDA4F85E80E06FC069E7
:104C4000B0F5807F21D02068006820F48070216852
:104C500008602068806800E021E020F00100216801
:104C600088602068806820F04000216888602020EB
:104C7000C4F888000020E0662068006820F010007A
:104C800021680860E06FFDF733FFB4F85C00B4F80A
:104C90005E20801A81B22046FFF71EFEA4E634F89B
:104CA0005C0F6188401A1FFA80F860885C3CF8B19C
:104CB000B8F1000F1CD02068006820F490702168C3
:104CC0000860206880682949C943084021688860D5
:104CD0002020C4F888000020E06620672068006873
:104CE00020F010002168086041462046FFF7F4FDDF
:104CF0007AE605F4801050B107F4800038B14FF423
:104D0000801021680862204601F100FE6CE605F083
:104D1000800058B106F0800010B907F4000028B1F7
:104D2000606F10B12046616F88475DE605F0400076
:104D300030B106F0400018B1204602F0EEFB53E619
:104D400005F4000030B106F0804018B12046FFF7AE
:104D50000DFE49E605F0807030B106F0004018B154
:104D6000204601F1D2FD3FE600BF3DE60100001004
:104D700020010004A5740008100002401004024045
:104D800070472DE9F84F04460E4617469946D4F869
:104D9000840020285ED106B117B90120BDE8F88F44
:104DA00000BF94F88000012801D10220F6E701201D
:104DB00084F8800000BF00205434A06321202063C9
:104DC000FEF7B2FE824627806780543CA068B0F5AB
:104DD000805F04D1206910B90025B04602E0354655
:104DE0004FF0000800BF002084F8800000BF1DE0E5
:104DF0005346002280212046CDF8009002F064FE48
:104E000008B10320CAE745B9B8F80000C0F30800AC
:104E10002168886208F1020803E028782168886226
:104E20006D1CB4F85600401EA4F85600B4F85600A5
:104E30000028DDD15346002240212046CDF80090C5
:104E400002F042FE08B10320A8E72020C4F8840045
:104E50000020A3E70220A1E770B504460E461546E0
:104E6000D4F8840020284BD106B10DB9012070BDC3
:104E700000BF94F88000012801D10220F7E701204B
:104E800084F8800000BF44F8506FA580E5800020C2
:104E9000E06321206063A06A503C08B31948A16F09
:104EA000C8631948A16F08641848A16FC86400203E
:104EB000A16F0865236803F128022B46216DA06FBE
:104EC000FFF0FCF960B11020C4F88C0000BF002096
:104ED00084F8800000BF2020C4F884000120C6E7C9
:104EE00040202168086200BF002084F8800000BFD5
:104EF0002068806840F08000216888600020B6E764
:104F00000220B4E7859B1008BB9B1008BD74000805
:104F1000704700002DE9F043C1B005468946E878A6
:104F2000A97840EA01286879297940EA0126012E0A
:104F300001DB7D2E06DD0321084602F1A5F841B014
:104F4000BDE8F08308EB0600B0F5007F04DD022128
:104F5000032002F199F8F2E77006040E01208DF8A3
:104F6000000003208DF801008DF80240002013E0BE
:104F700008EB0002144B33F812100A12032303EB60
:104F800040030DF80320CBB2032202EB4002521C77
:104F90000DF80230411C88B2B042E9DBE01CC1B21E
:104FA0006846FCF08DF80746F9B2E01C0DF80010D9
:104FB0003912201D0DF80010601DC1B2684600F0C6
:104FC00037F800BFBBE70000DC2100242DE9FC41DD
:104FD00004468846E078A17840EA01266079217984
:104FE00040EA0127B6F5007F05DB0221062002F129
:104FF0004BF8BDE8FC810C4820F816702068009042
:10500000A088ADF8040006216846FCF059F8054672
:10501000E8B28DF8060028128DF8070008216846CE
:1050200000F006F800BFE4E7DC21002400BFFEE743
:1050300070B504460D462946204601F0AFFB58B92D
:1050400006480068401C05490860C0B2012803D129
:10505000294603A004F136FE70BD00006C00002458
:105060004D425F53656E643A2052533438352054B4
:105070005820627573792C206672616D65206472A8
:105080006F7070656420286C656E3D2564290D0A7B
:105090000000000000B587B0002003900490059048
:1050A0000690009001900290154816490860EF2084
:1050B000486000211348816041F28731C1600021BE
:1050C00001614161816101F17CFA08B1FDF77CFC6D
:1050D0004FF48050039003A90A4801F149FB08B13D
:1050E000FDF772FC0020009001900290694605488F
:1050F000FFF77CFA08B1FDF767FC07B000BD0000C0
:1051000000000140B80F002400B587B000200390D4
:105110000490059006900090019002904FF080401E
:1051200009490860EF204860002107488160891E16
:10513000C160002101618021816101F142FA08B161
:10514000FDF742FC07B000BD0410002400BFFEE7DD
:105150002DE9F04703F1BEFFE848008800281DDD77
:1051600000200BE0E6490B5CE6490A780978491C07
:10517000E44C2170E4498B54411C88B2DF49098812
:10518000884204DADF490978B1F5827FEADB002042
:10519000DA490880FEF7C8FCDC490860D948007885
:1051A000002876DDFEF7C0FCD8490968401A0228BD
:1051B0006FD3D5480078012804D00020D149087069
:1051C000BDE8F087CF480078042803DA0020CD49F5
:1051D0000870F5E7CB480078801ECB49095CC948C8
:1051E0000078401EC84A105C41EA0028C548007893
:1051F000801EC1B21046FBF063FF0746B84503D0DE
:105200000020C0490870DBE7BF484678032E04D071
:10521000062E08D0102E12D10BE0BA480178BA48F9
:10522000FFF778FE10E0B7480178B748FFF7CEFEE9
:105230000AE0B4480178B44801F1C0FB04E0012160
:10524000304601F121FF00BF00BF062E01D0102E15
:105250007ED1002409E004F18402AD4B33F8122022
:1052600011B2A0B200F0E6FF641C402CF3DB002476
:105270000BE004F20712A64B33F8122011B204F12E
:10528000400290B200F0D6FF641C402CF1DB0024F9
:105290000CE031E104F1C7029D4B33F8122011B24A
:1052A00004F1800290B200F0C5FF641C092CF1DB10
:1052B0009748B0F80641002C6BDB082C69DA95485A
:1052C0000068844265DA944890F90000844260D115
:1052D000042C45DA00250EE0904A32F8152002EB46
:1052E000041290B205F1E002894B33F8122011B29A
:1052F00000F0A0FF6D1C0D2DEEDB8548B0F8DC0141
:105300008349B1F8DA1160F31F418946032101EBAB
:10531000041188B2494600F08DFF7D48B0F8E001E5
:105320007B49B1F8DE1160F31F418946042101EB8E
:10533000041188B2494600F07DFF7548B0F8E401D9
:105340007349B1F8E21160F31F418946052100E07D
:10535000CEE001EB041188B2494600F06BFF18E083
:10536000002514E0042C06DA6C4830F8150000EB38
:10537000041080B200E00020814605F1E000644A9C
:1053800032F8100001B2484600F054FF6D1C0D2D9C
:10539000E8DB6348007890B900200BE000EB0011D7
:1053A00001EB41015F4A02EB810191F8C8105E4AAE
:1053B0001154401C0828F1DB0120594908700324CE
:1053C0008FE0601C53490968884200DD88E004F5DD
:1053D000A2704F4911F8100000F001055248005D1D
:1053E000A8427CD004EB041000EB40004D4901EBD7
:1053F000800090F88C0040B904EB041000EB4000F2
:1054000001EB800090F8280038B14748015D04F5B1
:10541000A2703F4A22F8101062E004EB041000EB87
:105420004000404901EB800080F8C85029462046E2
:10543000FBF016FE04EB041101EB4101394A02EBCB
:1054400081010889214604F187F920BB3648005DB7
:1054500004EB041101EB4101324A02EB810181F8B6
:10546000C8003148015D2046FBF0FAFD03F152FE11
:105470002D48015D04F5A270254A22F8101004EBB6
:10548000041101EB4101274A02EB81010889214601
:1054900004F162F924E024480555012D10D148F6A5
:1054A0009F40042101EB041189B2204A42F82100F7
:1054B0000020052101EB041189B242F821000EE021
:1054C0001B48042101EB041189B2184A42F821005B
:1054D0000020052101EB041189B242F8210000BF30
:1054E000641C082CFFF66DAF03F114FEFBF0A6FE62
:1054F00000200449087000BF00BF61E6540000248A
:10550000E81E002460000024DC2500246400002440
:10551000DC2100242801002468000024A0D6000813
:10552000780000245C08002470000024E026002499
:1055300080C3C9012DE9F0432DED028B81B0FE48F7
:10554000006870BB00201CE0411CFC4A12689142BC
:1055500000DD15E000EB001101EB4101F84A02EB20
:1055600081014D694200F74B23F812504FF6FF714D
:1055700001EA2541012202EB400223F8121000BF8C
:10558000401C0428E0DBED480088EE4908864FF413
:10559000807048860020088501B0BDEC028BBDE814
:1055A000F083FFE7FEF7C0FA0446E7480068201AD8
:1055B000B0F57A7F0AD3E448006800F57A70E249D2
:1055C0000860E2480068401CE0490860002493E05D
:1055D000601CDA490968884200DD8CE004EB0410A5
:1055E00000EB4000D64901EB800045696100D54AD7
:1055F00022F811504FF6FF7000EA2540012101EB1F
:10560000440122F8110004EB041000EB4000CC49E7
:1056100001EB8000866921463046FCF7AAFB81B287
:1056200004F10800C74A22F8101004EB041000EB44
:105630004000C34901EB8000818C04F10C0022F88A
:10564000101004EB041000EB4000BD4901EB80009A
:105650004068418904F1100022F81010601CB7491D
:105660000968884204DD00211F3022F8101041E053
:1056700004EB041000EB4000B14901EB8000807A9C
:1056800030B9002104F12000AE4A22F8101031E0B8
:1056900004EB041000EB4000A94901EB800090F8F6
:1056A000240000F0080030B1032104F12000A54AD5
:1056B00022F810101EE004EB041000EB4000A0499B
:1056C00001EB800090F88C0038B904EB041000EB7B
:1056D000400001EB8000806930B1022104F120001C
:1056E000984A22F8101005E0012104F12000954AA3
:1056F00022F8101000BF641C042CFFF669AF0424CC
:105700008BE0601C8D490968884200DD84E0271F1A
:10571000322000EBC70804EB041000EB400088497E
:1057200001EB80004569874921F818504FF6FF705A
:1057300000EA2541834A08F1010022F8101004EB29
:10574000041000EB40007E4901EB80008669214691
:105750003046FCF70EFB81B27A4A08F1020022F8CB
:10576000101004EB041000EB4000754901EB8000C1
:10577000818C08F1030022F8101004EB041000EBF8
:1057800040006F4901EB80004068418908F1040046
:1057900022F8101004EB041000EB4000684901EB04
:1057A0008000807A28B9002107F15A0022F81010F1
:1057B00031E004EB041000EB4000614901EB800094
:1057C00090F8240000F0080030B1032107F15A00DE
:1057D0005C4A22F810101EE004EB041000EB4000BD
:1057E000574901EB800090F88C0038B904EB0410A5
:1057F00000EB400001EB8000806930B1022107F12D
:105800005A00504A22F8101005E0012107F15A0011
:105810004C4A22F8101000BF641C082CFFF671AF30
:105820000024B4E045480068844208DA04EB041020
:1058300000EB4000424901EB8000406900E000209D
:1058400008EE100A3D480068844213DA04EB0410A5
:1058500000EB40003A4901EB8000D0F8BC00002882
:1058600008DD04EB041000EB400001EB8000D0F8F1
:10587000BC0002E02046FDF7ABF8074604EB04103D
:1058800000EB40002E4901EB800090F8C800012891
:105890003BD12A480068844210DA002F0EDDB8EEB2
:1058A000C80ADFED2B0A60EE200A00EE107AB8EE8F
:1058B000C00A80EE801A8DED001A03E09FED250AE4
:1058C0008DED000A07E09DED000ADFED210A30EEC4
:1058D000600A8DED000A9DED000ADFED1D0AB4EEB1
:1058E000E00AF1EE10FAEEDA07E09DED000ADFEDD6
:1058F000180A30EE200A8DED000A9DED000AB5EE83
:10590000C00AF1EE10FAF0D331E0072101EB0411E7
:1059100088B200F019FC8046B8F1000F01DC41F2BA
:105920008838F8EEC80A00EE108AB8EEC00A60EEB9
:10593000800A00EE107A0FE01000002428010024F5
:105940005C080024DC2100247C0000245C0000248E
:105950000000B44300000000B8EEC00A9FEDFE1A3C
:1059600020EE010A80EE801A8DED001A00BF26217C
:1059700001EB4401F94A009822F811000098010C4B
:10598000262000EB4400401C22F81010641C042C5C
:10599000FFF648AF032015E0411CF14A126891421E
:1059A00000DD0EE000EB001101EB4101ED4A02EBDE
:1059B000810191F8C82000F5A271E84B23F811206D
:1059C00000BF401C0828E7DB0424A5E0A4F104087C
:1059D000E3480068844208DA04EB041000EB40005E
:1059E000E04901EB8000406900E0002008EE100A69
:1059F000DB480068844213DA04EB041000EB40003B
:105A0000D84901EB8000D0F8BC00002808DD04EB89
:105A1000041000EB400001EB8000D0F8BC0002E075
:105A20002046FCF7D5FF074604EB041000EB4000CE
:105A3000CC4901EB800090F8C80001283BD1C84850
:105A40000068844210DA002F0EDDB8EEC80A5FED60
:105A5000400A60EE200A00EE107AB8EEC00A80EE2E
:105A6000801A8DED001A03E01FED460A8DED000A45
:105A700007E09DED000A5FED4A0A30EE600A8DED09
:105A8000000A9DED000A5FED4E0AB4EEE00AF1EE69
:105A900010FAEEDA07E09DED000A5FED530A30EEF2
:105AA000200A8DED000A9DED000AB5EEC00AF1EE68
:105AB00010FAF0D320E0072101EB041188B200F0C6
:105AC00043FB8146B9F1000F01DC41F28839F8EE61
:105AD000C80A00EE109AB8EEC00A60EE800A00EE26
